:020000040800F2
:1000000000000520F5520008151E0008171E000804
:10001000191E00081B1E00081D1E0008000000001D
:100020000000000000000000000000001F1E00088B
:10003000211E000800000000231E0008251E0008E5
:100040004553000845530008455300084553000830
:100050004553000845530008455300084553000820
:100060004553000845530008455300084553000810
:100070004553000845530008455300084553000800
:100080002D1E00084553000845530008455300083D
:1000900045530008455300084553000845530008E0
:1000A00045530008455300084553000845530008D0
:1000B00045530008455300084553000845530008C0
:1000C00045530008455300084553000845530008B0
:1000D00045530008455300084553000845530008A0
:1000E0004553000845530008455300084553000890
:1000F0004553000845530008455300084553000880
:10010000455300084553000845530008455300086F
:10011000455300084553000845530008455300085F
:100120003D1E00084553000845530008455300088C
:10013000455300084553000845530008455300083F
:10014000455300084553000845530008455300082F
:10015000455300084553000845530008455300081F
:10016000455300084553000845530008455300080F
:10017000455300084553000845530008000000009F
:1001800045530008455300084553000845530008EF
:1001900045530008455300084553000845530008DF
:1001A00045530008455300084553000845530008CF
:1001B00045530008455300084553000845530008BF
:0801C0004553000845530008F7
:1001C8000348044B834202D0034B03B118477047DE
:1001D8007002002070020020000000000548064B55
:1001E8001B1AD90F01EBA301491002D0034B03B12D
:1001F80018477047700200207002002000000000BD
:1002080010B5064C237843B9FFF7DAFF044B13B156
:100218000448AFF300800123237010BDB003002011
:10022800000000004858000808B5044B1BB10449F9
:100238000448AFF30080BDE80840CFE700000000A5
:10024800B40300204858000870B50F4B0F4DAB425F
:10025800A3EB050607D0B610002455F8043B01347B
:100268009847A642F9D805F0EBFA094D094B5E1BF1
:10027800AB424FEAA60606D0002455F8043B0134E9
:100288009847A642F9D870BD585C0008585C000829
:10029800585C00085C5C0008830730B547D0541EE2
:1002A800002A3ED0CAB2034601E0013C39D303F824
:1002B800012B9D07F9D1032C2CD9CDB205EB0525CF
:1002C8000F2C05EB054535D9A4F1100222F00F0CCF
:1002D80003F1100EE6444FEA121C1A46C2E9005513
:1002E800C2E9025510327245F8D10CF1010214F03E
:1002F8000C0F03EB021204F00F0C13D0ACF1040343
:1003080023F003030433134442F8045B9342FBD104
:100318000CF003042CB1C9B21C4403F8011BA3421E
:10032800FBD130BD64461346002CF4D1F9E70346EF
:100338001446C0E71A46A446E0E700BF10EE103A9C
:10034800184923F000428A421AD9B2F1FF4F02D36A
:1003580030EE400A704700B583B0684600F0F0F808
:1003680000F003000128DDED010A9DED000A10D020
:10037800022809D090B900F019F803B05DF804FB21
:10038800DFED090A00F012B800F010F8B1EE400AEB
:10039800F3E700F08DF8B1EE400AEEE7012000F037
:1003A80087F8EAE7D80F493F0000000010EE103A3E
:1003B80023F00043B3F1485F2CD2FDEEC07A17EE6C
:1003C800903A002B60D060EE007A9FED317A9FED75
:1003D800315ADFED315A9FED316ADFED316AA7EE10
:1003E800875A9FED307AE7EE855AA7EEA56AA7EE01
:1003F800867AE7EE876A67EEA66A60EEC00AB6EE0E
:10040800007AE7EEA60AB7EE000AD7EE870A30EEC2
:10041800600A704760EE007A9FED1D7A9FED1D5AC5
:10042800DFED1D5A9FED1D6ADFED1D6A1E4AA7EE1E
:10043800875A93429FED1B7AE5EE275AA5EEA76AE5
:10044800A6EE277AE7EE276A66EEA76AD5D9174A95
:10045800934214D803F17F4307EE103AB7EE006ACF
:1004680036EE476A60EEC00AF6EE005A97EEA57AB5
:10047800E7EEA60A37EE607A36EE470A7047B6EE20
:10048800076AB5EE027AEDE7B7EE000A704700BFDB
:100498004ED747ADF6740F317CF293B4010DD037C7
:1004A800ABAA2A3D610BB6BA9999993E0000483F1C
:1004B80010EE103A23F00043B3F1485F04D2FDEE8A
:1004C800C07A17EE903A5BB360EE007A9FED157A2A
:1004D800DFED155A9FED156ADFED156AE7EE875ACD
:1004E8009FED147AA5EEA76A20EE275AE6EE276A52
:1004F800A6EEA77A30B9DFED106AE7EE876AA6EEB6
:10050800850A704727EE457AF6EE006AA0EEA67ACD
:10051800DFED0A6AD7EE270AE5EE260A30EE600A12
:10052800704700BFD3C92E2F342FD7B21BEF3836F0
:10053800010D50B98988083CABAA2ABEABAA2A3E4D
:1005480070B510EE103A884A23F00044944286B001
:10055800054671D9854A94421E4624D823F00042A4
:10056800002BDFED837A834922F00F02B0EE407A48
:1005780040F3E0808A4270EE677A09BF9FED7E7A89
:10058800DFED7E6ADFED7E6A77EEC77A37EEE67AD0
:1005980077EEC77A80ED007A77EEE67AC0ED017AD9
:1005A800012006B070BD774A944252D9B4F1FF4F8A
:1005B80048D2E215863AA4EBC25307EE903ABDEE54
:1005C800E77ADFED716AB8EEC77A77EEC77A8DED14
:1005D800037A67EEA67ABDEEE77AB8EEC77A77EEC9
:1005E800C77A8DED047A67EEA67AF5EE407AF1EED9
:1005F80010FACDED057A40F09880B5EE407AF1EE2C
:1006080010FA0CBF012302236049019102210091D5
:1006180003A8294600F0CCF8002EC2DA95ED007A3E
:10062800D5ED017AB1EE477AF1EE677A85ED007A79
:10063800C5ED017A4042B4E7002285ED000A426028
:100648000020AEE770EE407AC0ED017AC0ED007A86
:10065800F6E700F0A5F89FED4E7A9FED456AF6EEB5
:10066800007AE0EE077A9FED457AFDEEE77A17EE1D
:10067800900AF8EEE76A1F28A6EEC60A66EE877AA1
:10068800B1EE666A20DC434A411E26F0004352F868
:10069800212023F0FF03934216D030EE677A30EE24
:1006A800470A002E30EE670A85ED007A85ED010ACB
:1006B800BFF677AFB1EE477AB1EE400A85ED007A22
:1006C80085ED010A40426CE730EE677AE21517EED5
:1006D800103AC3F3C753C3EBD453082BDFDD9FEDA8
:1006E800267A9FED275AF0EE405AE6EE075A70EE4A
:1006F800657AE6EE077AD6EE857A35EEE77A17EE72
:10070800103AC3F3C753D21A192A10DD9FED227A83
:100718009FED225AB0EE650AA6EE070A75EEC07A7A
:10072800E6EE077AD6EE857AB7E703236CE7B0EEF4
:10073800650AB4E78A4270EE277A09BF9FED0E7A00
:10074800DFED0E6ADFED0E6A77EE877A37EEA67A6E
:1007580077EEC77A80ED007A77EEA67AC0ED017A57
:100768004FF0FF301DE700BFD80F493FE3CB1640DD
:10077800800FC93FD00FC93F004435374344353750
:1007880008A3852E800F494300008043E0580008E5
:1007980084F9223F6058000800A3852E32318D2449
:1007A80010EE103A23F0004300EE103A704700BFF5
:1007B8002DE9F04F2DED048BDBB01C4694460393D6
:1007C8000A46CD4B68991CF1040F53F82160824604
:1007D80004F1FF38C0F24982BCF1030348BF0CF1B1
:1007E8000403DB10029301334FEAC30EACEB0E0394
:1007F8000593029B16EB0800A3EB080316D40130FF
:100808009FEDBE7A699C18441EA9002BA4BF54F81A
:10081800235007EE905A03F10103ACBFF8EEE77AD4
:10082800F0EE477A8342E1EC017AEED1002EC0F275
:10083800B182039B1EA901EB830446AD4FEA8309ED
:100848004046F7180AEB8301B8F1000FDFEDAB7AE9
:1008580009DBA3465346F3EC016A3BED017A8B4270
:10086800E6EE877AF7D10130B842E5EC017A04F177
:100878000404E9D10DF1280B0BEB8603CDE9062E14
:10088800043B9FEDA09ADFED9E8A059804930AEB3E
:10089800090446AF0BEB86090096CDF820C05AAB89
:1008A80003EB8603002E13ED140A4FEA860515DDC7
:1008B8007B195A4660EE097AB0EE407AFDEEE77A87
:1008C80073ED016AF8EEE77ABB42A7EEE87A37EEF5
:1008D800A60ABDEEC77AA2EC017AEBD1019000F02E
:1008E80085FAF4EE007AB0EE408A20EE270A00F08E
:1008F800EFFAF2EE007AA0EE678A01980028FDEE82
:10090800C89AF8EEE97A38EE678A6CDD06F1FF3EA0
:10091800C0F108035BF82E2042FA03FC0CFA03F33B
:10092800D21AC0F1070119EE903A4BF82E200A416D
:100938006344002A09EE903A00F3F080B5EE408A4D
:10094800F1EE10FA40F09D80009B9E420ADD5D4466
:10095800002355F8041D4D4543EA0103F9D1002B46
:1009680040F0F280009B013B5BF82330002B40F005
:10097800E780049B012153F8042D0131002AFAD0A5
:10098800731C31449C46029D039A05EB030E0EF13D
:10099800804E699D32440EF1FF3E07EB83061EAB85
:1009A80005EB8E0E03EB8205DEED017AF8EEE77AB1
:1009B800B8F1000F0EF1040EE5EC017ADFED4F7A85
:1009C80009DB2A465346F3EC016A32ED017AA34269
:1009D800E6EE877AF7D10CF1010C6145E6EC017A75
:1009E800E2DA0E465BE740F08F80731E5BF8232047
:1009F800D211002AA2DD19EE903A002E03F101036C
:100A080009EE903A40F3D48159464FF0000E51F860
:100A1800043B002B6AD0C3F5807341F8043C04E022
:100A28000B68C3F1FF0341F8043B0EF1010E764554
:100A3800F6DC01239E4600280ADD012878D002282A
:100A480006D1711E5BF8213003F03F0C4BF821C032
:100A5800022A7FF473AFB7EE000A734630EE488A75
:100A6800002B3FF46BAF0992019000F0BFF938EE0C
:100A7800408A0198099AB5EE408AF1EE10FA3FF4DF
:100A880063AF9246DDE9062EDDF820C00196AEEB95
:100A98000C00B0EE480A009E009200F0A7F9DFEDC6
:100AA800186AB4EEE60AF1EE10FADDE90023F0EE7A
:100AB800407AC0F250819FED137A059920EE077AAB
:100AC8000831BDEEC77A0591B8EEC77A5C1CE7EE2F
:100AD800667ABDEEC77AFDEEE77A17EE901A4BF804
:100AE800231017EE103A4BF8243046E00EF1010EB1
:100AF800B6458CDB9E469EE7F85B000800000000C8
:100B0800000080430000803BF6EE007AB4EEE78AEE
:100B1800F1EE10FA80F2988000220FE70133002EE0
:100B280009EE903A3FF770AF002301289E4686D120
:100B3800711E5BF8213003F07F0C4BF821C087E76A
:100B4800731C9C4619461EE733469246DDE905129A
:100B58005C1EA1F108005BF82410009E059061B9A5
:100B680003F18043013B0BEB8303014653F8040D6B
:100B7800013C08390028F9D0059105980092B7EE94
:100B8800000A00F033F9002C009AB0EE407AC0F267
:100B98000581601C46AD5FED256A81000BEB800383
:100BA80005EB800073ED017AF8EEE77A5B4567EEB6
:100BB800877A27EE267A60ED017AF3D10DF1C8081D
:100BC8000B1F46A8C718C646A44600259146002E06
:100BD80073DB844ADFED847A3846002301E0AB42B8
:100BE80008DCF2EC016AB0EC017A01339E42E6EED1
:100BF800877AF4DA0CF1FF3CBCF1FF3FEEEC017AA6
:100C080005F10105A7F10407E1D1689B022B4A46CB
:100C180056DC002B2EDC0ED1DFED737A414431ED2A
:100C2800017A414577EE877AF9D15346002B40F097
:100C3800AE80C2ED007A19EE903A03F007005BB07F
:100C4800BDEC048BBDE8F08F19EE903A002E03F14D
:100C5800010309EE903AC8BF02223FF7D5AEF7EE7E
:100C6800007A37EEC88A022268E600234FF0080EA1
:100C78000293BBE59FED5C7A414471ED017A4145F1
:100C880037EE277AF9D1DDED327A534677EEC77A17
:100C9800002B75D182ED007A64B133A90123B1EC40
:100CA800017A01339C4277EE877AF8DA53460BB122
:100CB800F1EE677AC2ED017ABDE7DFED4B7A99E78D
:100CC800689B032BB7D1002C7ED008EB840595EDEB
:100CD800007AA0002B46294671ED017AF0EE476AAA
:100CE80037EE277A414577EEC77A81ED007A77EEBD
:100CF800A67AC1ED017AEFD1012C65D095ED007A85
:100D080008F1040173ED017AF0EE476A37EE277AAD
:100D1800994277EEC77A83ED007A77EEA67AC3ED2B
:100D2800017AEFD1031DDFED307A434408F108085A
:100D380033ED017A984577EE877AF9D15346DDEDA0
:100D4800326A9DED337A73B9C2ED006A82ED017A99
:100D5800C2ED027A6FE7FDEEC07A1C4617EE901AD4
:100D68004BF8231009E7F1EE666AB1EE477AF1EE27
:100D7800677AC2ED006A82ED017AC2ED027A5AE71B
:100D8800B1EE477A82ED007A002C86D190E7F1EE39
:100D9800677A4EE7039B4FEA83096BE5689B022B52
:100DA8000EDC002B13DC7FF446AFDFED0F7A3CE757
:100DB800022A7FF4C3ADF7EE007A37EEC88ABDE5A4
:100DC800689B032B7FF437AFDFED077AB6E753460E
:100DD800DDED327A13B9002313606BE74FF000435F
:100DE800136065E7045C00080000000010EE103A8C
:100DF80033F000411A4627D0B1F1FF4F21D213F04A
:100E0800FF4F22D1DFED2B7A2B4A60EE277A9042F2
:100E180017EE903A33DB4CF2503CC3F3C7516045B0
:100E28001A46A1F1190116DDDFED247ADFED246AF7
:100E3800002BB0EE677AB8BFF0EE667A27EE870A25
:100E4800704730EE000A704770474CF2503C6045DE
:100E58004FEAD151E8DC0144FE29E5DC002915DC24
:100E680011F1160F19DB193122F0FF4242EAC15283
:100E780007EE902A9FED130A27EE800A7047DFEDF0
:100E8800127A07EE103A27EE270A704722F0FF423F
:100E980042EAC15300EE103A7047DFED0B7ADFEDFE
:100EA8000B6A002BB0EE677AB8BFF0EE667A27EED1
:100EB800870A70470000004CB03CFFFFCAF2497136
:100EC800CAF249F1000000336042A20D6042A28DCF
:100ED80010EE102AC2F3C7537F3B162B22F00041B5
:100EE80029DC002B104618DB1A4919410A4221D087
:100EF800DFED197A70EE277AF5EEC07AF1EE10FA86
:100F080018DD002A04DA4FF4000242FA03F3184409
:100F180020EA010300EE103A7047DFED0F7A70EE19
:100F2800277AF5EEC07AF1EE10FA03DD002A08DB25
:100F38009FED0A0A7047B1F1FF4FFBD330EE000A6C
:100F48007047DFED077A0029BFEE000A08BFB0EE50
:100F5800670A7047FFFF7F00CAF24971000000006E
:100F68000000008081F0004102E000BF83F00043F0
:100F780030B54FEA41044FEA430594EA050F08BF2C
:100F880090EA020F1FBF54EA000C55EA020C7FEAF0
:100F9800645C7FEA655C00F0E2804FEA5454D4EB6D
:100FA8005555B8BF6D420CDD2C4480EA020281EA37
:100FB800030382EA000083EA010180EA020281EA6F
:100FC8000303362D88BF30BD11F0004F4FEA0131C1
:100FD8004FF4801C4CEA113102D0404261EB4101D0
:100FE80013F0004F4FEA03334CEA133302D0524256
:100FF80063EB430394EA050F00F0A780A4F1010412
:10100800D5F1200E0DDB02FA0EFC22FA05F280184B
:1010180041F1000103FA0EF2801843FA05F3594131
:101028000EE0A5F120050EF1200E012A03FA0EFCB0
:1010380028BF4CF0020C43FA05F3C01851EBE371DA
:1010480001F0004507D54FF0000EDCF1000C7EEBF7
:1010580000006EEB0101B1F5801F1BD3B1F5001F35
:101068000CD349085FEA30004FEA3C0C04F1010454
:101078004FEA445212F5800F80F09A80BCF1004F7D
:1010880008BF5FEA500C50F1000041EB045141EAFF
:10109800050130BD5FEA4C0C404141EB0101013CC8
:1010A80028BFB1F5801FE9D291F0000F04BF0146B7
:1010B8000020B1FA81F308BF2033A3F10B03B3F189
:1010C80020020CDA0C3208DD02F1140CC2F10C0219
:1010D80001FA0CF021FA02F10CE002F11402D8BF77
:1010E800C2F1200C01FA02F120FA0CFCDCBF41EA43
:1010F8000C019040E41AA2BF01EB0451294330BD12
:101108006FEA04041F3C1CDA0C340EDC04F11404EE
:10111800C4F1200220FA04F001FA02F340EA0300C5
:1011280021FA04F345EA030130BDC4F10C04C4F10B
:10113800200220FA02F001FA04F340EA03002946EB
:1011480030BD21FA04F0294630BD94F0000F83F435
:10115800801306BF81F480110134013D4EE77FEA18
:10116800645C18BF7FEA655C29D094EA050F08BF64
:1011780090EA020F05D054EA000C04BF1946104645
:1011880030BD91EA030F1EBF0021002030BD5FEA89
:10119800545C05D14000494128BF41F0004130BDB1
:1011A80014F580043CBF01F5801130BD01F0004505
:1011B80045F0FE4141F470014FF0000030BD7FEA78
:1011C800645C1ABF194610467FEA655C1CBF0B4673
:1011D800024650EA013406BF52EA033591EA030F8A
:1011E80041F4002130BD00BF90F0000F04BF002182
:1011F800704730B54FF4806404F132044FF00005B5
:101208004FF0000150E700BF90F0000F04BF00212D
:10121800704730B54FF4806404F1320410F0004593
:1012280048BF40424FF000013EE700BF42004FEA8E
:10123800E2014FEA31014FEA02701FBF12F07F430B
:1012480093F07F4F81F06051704732F07F4208BFC2
:10125800704793F07F4F04BF41F40021704730B5C9
:101268004FF4607401F0004521F000411CE700BF15
:1012780050EA010208BF704730B54FF000050AE098
:1012880050EA010208BF704730B511F0004502D599
:10129800404261EB41014FF4806404F132045FEA9B
:1012A800915C3FF4D8AE4FF003025FEADC0C18BF44
:1012B80003325FEADC0C18BF033202EBDC02C2F136
:1012C800200300FA03FC20FA02F001FA03FE40EAC8
:1012D8000E0021FA02F11444BDE600BF4FF0FF3CB6
:1012E80006E000BF4FF0010C02E000BF4FF0010C18
:1012F8004DF804CD4FEA410C7FEA6C5C4FEA430C91
:1013080018BF7FEA6C5C1BD001B050EA410C0CBFDF
:1013180052EA430C91EA030F02BF90EA020F002041
:10132800704710F1000F91EA030F58BF994208BFA8
:1013380090422CBFD8176FEAE37040F00100704765
:101348004FEA410C7FEA6C5C02D150EA013C07D1BC
:101358004FEA430C7FEA6C5CD6D152EA033CD3D007
:101368005DF8040B704700BF8446104662468C4601
:101378001946634600E000BF01B5FFF7B7FF002834
:1013880048BF10F1000F01BD4DF808EDFFF7F4FF5D
:101398000CBF012000205DF808FB00BF4DF808EDE8
:1013A800FFF7EAFF34BF012000205DF808FB00BF0B
:1013B8004DF808EDFFF7E0FF94BF012000205DF82D
:1013C80008FB00BF4DF808EDFFF7CEFF94BF0120E2
:1013D80000205DF808FB00BF4DF808EDFFF7C4FFDB
:1013E80034BF012000205DF808FB00BF53B94AB99B
:1013F800002908BF00281CBF4FF0FF314FF0FF3015
:1014080000F06AB9ADF1080C6DE904CE00F006F8F9
:10141800DDF804E0DDE9022304B070472DE9F04768
:10142800089D0E4604460F46002B4AD194468C452B
:10143800B2FA82F260D942B1C2F12003974020FA91
:1014480003F30CFA02FC1F4394404FEA1C4E1FFAA8
:101458008CF6B7FBFEF1230C0EFB117743EA07432A
:1014680001FB06F098420AD91CEB030301F1FF3790
:1014780080F01581984240F21281023963441B1AA8
:10148800A4B2B3FBFEF00EFB103344EA034400FBA6
:1014980006F6A6420AD91CEB040400F1FF3380F0DB
:1014A8000081A64240F2FD806444023840EA0140CF
:1014B800A41B00211DB1D4400023C5E90043BDE8A9
:1014C800F0878B4205D90DB1C5E900010021084616
:1014D800F5E7B3FA83F1002946D1B34202D3824239
:1014E80000F2F580841A66EB030201201746002DEE
:1014F800E5D0C5E90047E2E7002A40F09380A1EB78
:101508000C034FEA1C471FFA8CFE0121B3FBF7F6C8
:1015180007FB1630230C43EA00430EFB06F0984203
:1015280008D91CEB030306F1FF3802D2984200F2F7
:10153800D08046461B1AA4B2B3FBF7F007FB103362
:1015480044EA03440EFB00FEA64508D91CEB04043C
:1015580000F1FF3302D2A64500F2B6801846A4EB8C
:101568000E0440EA0640A5E7C1F120078B4022FAA5
:1015780007FC4CEA030C06FA01FE20FA07F426FAE7
:1015880007F344EA0E0400FA01F84FEA1C404FEA58
:101598001449B3FBF0FE1FFA8CF600FB1E3349EA30
:1015A80003430EFB06F9994502FA01F20BD91CEB2D
:1015B80003030EF1FF3A80F08580994540F282805E
:1015C800AEF1020E6344A3EB0909A4B2B9FBF0F330
:1015D80000FB139944EA094403FB06F6A64208D91E
:1015E8001CEB040403F1FF3068D2A64266D9023B23
:1015F800644443EA0E40A41BA0FB02E6B4427346CF
:10160800B14652D34FD05DB1B8EB030264EB090485
:1016180004FA07F722FA01F31F43CC40C5E9007426
:1016280000214CE7C2F1200120FA01F30CFA02FC78
:1016380026FA01F1964033434FEA1C471FFA8CFE05
:10164800B1FBF7F007FB1016190C41EA064100FB45
:101658000EF68E4204FA02F408D91CEB010100F1DF
:10166800FF382DD28E422BD902386144891B9BB298
:10167800B1FBF7F607FB161143EA014306FB0EF12F
:10168800994208D91CEB030306F1FF3814D299429A
:1016980012D9023E63445B1A46EA004136E73946EE
:1016A800EDE6184602E7F045ADD2BEEB020366EB65
:1016B8000C060138B146A6E74646ECE7034698E72C
:1016C8004046D3E7D6467EE76444023847E70846F3
:1016D8000DE7023E63442DE7704700BF10B584B0A4
:1016E8000024009401940294039402F0C3FA0123A5
:1016F8008DF800308DF8014001941F228DF80820E4
:1017080087228DF809208DF80A408DF80B408DF856
:101718000C308DF80D308DF80E408DF80F4068466E
:1017280002F0C6FA042002F0B3FA04B010BD0000BB
:10173800F0B58DB000240794089409940A940B948A
:10174800364B1A6B42F004021A631A6B02F0040259
:101758000192019A1A6B42F080021A631A6B02F026
:1017680080020292029A1A6B42F001021A631A6B03
:1017780002F001020392039A1A6B42F002021A6302
:101788001A6B02F002020492049A1A6B42F00802E1
:101798001A631A6B02F008020592059A1A6B42F056
:1017A80040021A631B6B03F040030693069B1C4F11
:1017B800224644F28101384601F08EFF194D224637
:1017C8004021284601F088FF4FF4005307934FF457
:1017D80088130893099407A9134801F07BFE44F283
:1017E800810307930126089609940A9407A93846A5
:1017F80001F070FE40230793089609940A9407A9FC
:10180800284601F067FE802307930894099407A9E6
:10181800284601F05FFE0DB0F0BD00BF0038024061
:1018280000040240001802400008024000B583B0DE
:10183800124B1A6B42F400121A631A6B02F400126C
:101848000092009A1A6B42F480021A631B6B03F42D
:1018580080030193019B00221146102002F0D8F961
:10186800102002F0E5F900221146382002F0D0F9E4
:10187800382002F0DDF903B05DF804FB00380240BF
:10188800014B01221A707047A1870020014B0222E8
:101898001A707047A1870020014B01221A70704707
:1018A800A0870020014B02221A707047A0870020F1
:1018B800F8B52DED028B0E461546002419E050F8B8
:1018C8002430C3F30B0307EE903AF8EE677A9FEDE6
:1018D8003C7A77EEC77A9FED3B7A67EE877AB2EE6D
:1018E800047A67EE877A384B03EB8403C3ED007AFA
:1018F8000134AC42E3DB2B46344A3349344803F025
:1019080031FD002411E0334B93ED000AFEF716FD7C
:10191800DFED2B7A20EE270A30EE270ABCEEC00A4C
:1019280010EE103A46F824300134AC423ADA274B2C
:1019380003EB840393ED008ADFED277A28EE278AEC
:10194800DFED267A38EE278A224BD3ED007A38EE7F
:10195800278A83ED008A18EE100AFFF767FC14A3A4
:10196800D3E90023FFF738FD30B1DFED1D7A38EEFB
:10197800678A184B83ED008A164B1F683846FFF7B5
:1019880055FC0DA3D3E90023FFF708FD0028BAD0C2
:10199800DFED137A07EE107A77EE277A0D4BC3ED59
:1019A800007AB0E7BDEC028BF8BD00BFAFF3008052
:1019B800182D4454FB210940182D4454FB2109C01B
:1019C800000000450000003AD8230020D80300207A
:1019D800D8430020D4030020368D273FDB0FC93FB2
:1019E800DB0FC94030B583B00E4803F06DFC0E4DD7
:1019F8004FF4806400940D4B2A4649210C4803F0AB
:101A08009FFC00940B4B2A4649210B4803F098FC95
:101A180000940A4B0A4A3F210A4803F091FC03B09C
:101A280030BD00BF90870020400100205476002080
:101A3800848700203065002078870020E443002058
:101A480000000020D843002072B6FEE710B5144805
:101A5800144B0360144B00221A7080215970E12145
:101A68009970DA701A715A7143604FF400038360F9
:101A78000E4BC3600E4B036140F2F453436102F016
:101A880011FD58B90B4C382200212046FEF704FC02
:101A9800212323604FF44003636110BDFFF7D4FF97
:101AA800ACCD002000800240CC0300207002002052
:101AB8001003002078CF002008B51248124B0360AD
:101AC800A3F1FE53A3F698434360002383600122E9
:101AD800C260036143618361C361036202F06CF910
:101AE80050B90021074802F0CBF938B90021054860
:101AF80002F0F4F920B908BDFFF7A6FFFFF7A4FF2D
:101B0800FFF7A2FF58CD00200054004008B50B484D
:101B18000B4B03604FF4E133436000238360C360E1
:101B280003610C2242618361C3610362436203F073
:101B380025F900B908BDFFF787FF00BF84CC002056
:101B48000048004008B50B484FF0A0430360062347
:101B580003710222C27100238371427201228272D0
:101B6800C37203738273C37303F039F900B908BDF4
:101B7800FFF76AFFA4C7002000B583B000230093D5
:101B880001930B480B4B036002F0D4F958B90423B6
:101B98000093002201926946054802F06FFA20B9C5
:101BA80003B05DF804FBFFF74FFFFFF74DFF00BFE1
:101BB800BCCE00200074004000B585B0002301931E
:101BC800029303930D480E4A02602C224260836000
:101BD8003122C260836102F0A7FD58B92023019326
:101BE8000023039301A9054802F0CEFD20B905B0F2
:101BF8005DF804FBFFF728FFFFF726FF0CCD002058
:101C08000010004000B585B00023009301930293B3
:101C180003931648164A02604FF48032426083608C
:101C28000361836180F820304FF08052C2624FF028
:101C380050628262C3600123C36180F8303043611F
:101C480000F0ECFB68B90323009301230193002300
:101C580002936946054800F00DFD20B905B05DF80E
:101C680004FBFFF7F1FEFFF7EFFE00BF30CF0020C7
:101C78000020014000B595B03022002108A8FEF7E9
:101C88000BFB00230393049305930693079301F03A
:101C980035FF234B1A6C42F080521A641B6C03F018
:101CA80080530193019B1F4B1A6842F440421A600B
:101CB8001B6803F440430293029B012308934FF4EB
:101CC8008033099302230E934FF480020F9204226B
:101CD8001092D822119212930323139308A800F0AC
:101CE800BFFDB0B901F012FFA8B90F230393022377
:101CF8000493002305934FF4A05306934FF48053A5
:101D08000793072103A801F033F830B915B05DF83F
:101D180004FBFFF799FEFFF797FEFFF795FE00BF5C
:101D2800003802400070004000B583B0FFF7D6FCD1
:101D380002F010F8FFF79EFFFFF7FAFCFFF776FDB9
:101D4800FFF784FEFFF7B8FEFFF7E0FEFFF7FAFEA5
:101D5800FFF712FFFFF730FFFFF754FFDFED1E0A12
:101D68009FED1E0AFFF73EFE4FF4806300931C4B65
:101D78001C4A11211C4803F0E3FA002100914FF49A
:101D880000631A4A1A4802F0E7F84FF4006219494A
:101D9800194800F06FFB194802F0F8FB08E04FF40F
:101DA800806212491348FFF783FD154B00221A7011
:101DB800134B1B78DBB2012BF1D0114B1B78DBB234
:101DC800022BF5D14FF480620E490F48FFF770FDE2
:101DD8000B4B00221A70EBE700803B4700803B4624
:101DE800EC540020FC000020E0540020A4A70020B0
:101DF800BCCE0020A487002030CF00200CCD0020CE
:101E0800A0870020A4B70020A4970020FEE7FEE7E3
:101E1800FEE7FEE7FEE770477047704708B501F038
:101E2800A5FF08BD08B5024801F07AFD08BD00BF4E
:101E38005CCE002008B5024801F072FD08BD00BF65
:101E4800D0CE002082B00A4B1A6C42F080521A643D
:101E58001A6C02F080520092009A5A6C42F4804246
:101E68005A645B6C03F480430193019B02B0704792
:101E78000038024010B588B00023039304930593FB
:101E880006930793026803F1804303F590339A425F
:101E980001D008B010BD044603F58C335A6C42F4E7
:101EA80080725A645A6C02F480720192019A1A6B19
:101EB80042F001021A631B6B03F001030293029BB9
:101EC800082303930323049303A9124801F002FB98
:101ED8001148124B0360002343608360C3604FF4D2
:101EE800806202614FF4805242614FF48042826105
:101EF8004FF48072C2614FF400320262436201F013
:101F08006DFC18B9044BA3639C63C2E7FFF79CFD03
:101F1800F8E700BF00000240D0CE00201064024065
:101F280010B588B000230393049305930693079391
:101F38000268234B9A4201D008B010BD044603F54D
:101F4800E2331A6C42F000521A641A6C02F0005222
:101F58000192019A1A6B42F001021A631B6B03F09B
:101F680001030293029B102303930323049303A901
:101F7800144801F0AFFA1448144B03604FF0606343
:101F88004360402383600023C3604FF48062026192
:101F98004FF4805242614FF4804282614FF4807264
:101FA800C2614FF400320262436201F017FC18B9B3
:101FB800054BA3609C63BFE7FFF746FDF8E700BF4A
:101FC80000740040000002405CCE0020886002409F
:101FD80070B58CB000230793089309930A930B9369
:101FE8000268394B9A4201D00CB070BDA3F59043FA
:101FF8001A6B42F000721A631A6B02F000720092B8
:10200800009A1A6B42F080621A631A6B02F08062BF
:102018000192019A1A6B42F000621A631A6B02F07D
:1020280000620292029A1A6B42F004021A631A6B57
:1020380002F004020392039A1A6B42F001021A6337
:102048001A6B02F001020492049A1A6B42F002021F
:102058001A631A6B02F002020592059A1A6B42F093
:1020680040021A631B6B03F040030693069B32235E
:102078000793022408940A940B250B9507A9134883
:1020880001F028FA862307930894002609960A94F3
:102098000B9507A90E4801F01DFA4FF4005307935A
:1020A800089409960A940B9507A90A4801F012FAB0
:1020B8004FF420530793089409960A940B9507A99F
:1020C800054801F007FA8FE7008002400008024047
:1020D80000000240000402400018024010B5A8B0F9
:1020E8000446002123912491259126912791842249
:1020F80002A8FEF7D1F82268184B9A4201D028B0FE
:1021080010BD4FF48043029302A800F00DFF10BBEE
:10211800134C236B43F002032363236B03F0020386
:102128000093009B4FF440732393122324930023BE
:102138002593032326930423279323A9094801F011
:10214800C9F9236C43F400132364236C03F40013CC
:102158000193019BD3E7FFF777FCD9E700540040D0
:1021680000380240000402400268094B9A4200D03D
:10217800704782B003F50A331A6C42F010021A64F1
:102188001B6C03F010030193019B02B0704700BF62
:102198000010004010B5A8B00446002123912491F6
:1021A800259126912791842202A8FEF775F82268C6
:1021B800184B9A4201D028B010BD4FF48073029397
:1021C80002A800F0B1FE10BB134B1A6C42F4802237
:1021D8001A641A6C02F480220092009A1A6B42F078
:1021E80008021A631B6B03F008030193019B4FF469
:1021F80040732393022324930123259303232693D7
:102208000723279323A9054801F064F9D3E7FFF7CB
:102218001BFCD9E70048004000380240000C02408F
:1022280070B5AAB0044600212591269127912891DE
:102238002991842204A8FEF72FF82368B3F1A04F50
:1022480001D02AB070BD4FF400130493C023099342
:1022580002230B930A9303230C9301230E934FF04D
:102268000063239304A800F05FFE002835D11C4CBE
:10227800236B43F001032363236B03F001030193F2
:10228800019B4FF4E85325930223269300252795B5
:10229800032328930A232993124E25A9304601F0D7
:1022A80019F94FF4007325932695279525A93046EB
:1022B80001F010F9636B43F080036363636B03F011
:1022C80080030293029B636C43F480436364636CF2
:1022D80003F480430393039BB3E7FFF7B5FBC6E71B
:1022E80000380240000002404A4B5A6822F440324B
:1022F8005A605A6841680A435A600268536823F46E
:102308008073536002685368016943EA012353608C
:102318000268536823F04073536002685368816809
:102328000B4353600268936823F400639360026868
:102338009368C1680B439360826A374B9A4257D0BF
:102348000268936823F07063936002689368816AF7
:102358000B4393600268936823F0405393600268CC
:102368009368C16A0B4393600268936823F0020381
:10237800936002689368816943EA4103936090F827
:102388002030002B3FD00268536843F40063536049
:102398000268536823F46043536001684B68426ADB
:1023A800013A43EA42334B600268D36A23F470036C
:1023B800D3620168CB6AC269013A43EA0253CB622D
:1023C8000268936823F4007393600268936890F836
:1023D800301043EA412393600268936823F48063D2
:1023E800936002689368416943EA81239360704768
:1023F8000268936823F0706393600268936823F01F
:1024080040539360B0E70268536823F40063536055
:10241800CAE700BF002301400100000F28B310B530
:102428000446036C43B1236C13F0100F0BD001204A
:10243800002384F83C3010BDFFF71CFD00236364C3
:1024480084F83C30EFE7226C094B134043F0020359
:1024580023642046FFF748FF00206064236C23F0C4
:10246800030343F001032364E2E70120704700BF40
:10247800FDEEFFFF30B583B013460022019290F8BD
:102488003C20012A00F097800446012280F83C2075
:102498000268906810F0010F13D1906840F00100B5
:1024A8009060464A1068464AA2FB0020800C00EB68
:1024B8004000019002E0019801380190019800283D
:1024C800F9D12068826812F0010F69D0256C3D4A65
:1024D8002A4042F480722264426812F4806F05D068
:1024E800226C22F4405242F480522264226C12F48C
:1024F800805F33D0626C22F006026264002284F8A6
:102508003C20A26B3048D063A26B30481064A26BA9
:102518002F48D06422686FF022001060206842685B
:1025280042F0806242602068826842F48072826071
:1025380020680A4600F14C01A06B01F0B7F9254B61
:102548005B6813F01F0F0CD123689A6812F0405F84
:102558002FD19A6842F080429A602AE00022626491
:10256800CCE723681C4A934211D01A4B5B6813F0DE
:10257800100F1ED12368194A93421AD19A6812F093
:10258800405F16D19A6842F080429A6011E09A68DA
:1025980012F0405FE9D19A6842F080429A60E4E71D
:1025A800236C43F010032364636C43F001036364FA
:1025B800002003B030BD0220FBE700BF6C02002002
:1025C80083DE1B43FEF8FFFF0B260008E925000801
:1025D800F5250008002301400020014000220140A9
:1025E80008B5806BFFF74CF908BD704708B5806BDC
:1025F80040230364436C43F004034364FFF7F5FF8F
:1026080008BD08B50346806B026C12F0500F25D147
:10261800036C43F40073036403689A6812F0405F24
:1026280019D18269BAB9DA6A12F4700F03D09A68BC
:1026380012F4806F0FD15A6822F020025A60036C9E
:1026480023F480730364036C13F4805F03D1036C79
:1026580043F001030364FFF719F908BD026C12F097
:10266800100F04D1826BD26C18469047F5E7FFF73C
:10267800BCFFF2E730B482B00022019290F83C200F
:10268800012A00F0E0800346012280F83C200A6815
:10269800B2F1004F18BF092A22D90468E06892B243
:1026A80002EB42021E3A4FF0070C0CFA02F220EA43
:1026B8000202E2600A68654882420AD01D68E8683A
:1026C8008C6892B202EB42021E3A94402043E860C2
:1026D80020E01868C2688C6842EA0462C26019E0A7
:1026E8000468206992B202EB420202F01F024FF026
:1026F800070C0CFA02F220EA020222611C68206927
:102708000A8802EB420202F01F028D6805FA02F203
:10271800024322614A68062A29D81C68606B02EBCA
:102728008202053A4FF01F0C0CFA02F220EA02026C
:1027380062631C68606B4A6802EB8202053AB1F872
:1027480000C00CFA02F2024362631868404A9042E1
:102758003DD018683E4A904243D018683C4A90429F
:102768004CD0002083F83C0002B030BC70470C2AE3
:1027780016D81D68286B02EB8202233A1F2404FA3C
:1027880002F220EA02022A631D68286B4A6802EBFB
:102798008202233A0C8804FA02F202432A63D4E73D
:1027A8001D68E86A02EB8202413A1F2404FA02F229
:1027B80020EA0202EA621D68E86A4A6802EB8202BD
:1027C800413A0C8804FA02F20243EA62BDE70A6859
:1027D800B2F1004FBDD11F48426822F44002426066
:1027E800B7E70A68122AB8D11A4A506820F40000DC
:1027F8005060506840F480005060AEE70A681348A3
:10280800112A18BF8242ACD1124A506820F48000C5
:102818005060506840F40000506009680B4A9142CB
:102828009FD10D4A12680D49A1FB0212920C02EBCE
:1028380082025200019202E0019A013A0192019A41
:10284800002AF9D18DE702208EE700BF12000010A0
:1028580000200140002301406C02002083DE1B435E
:10286800002800F0FF8170B582B00446036813F0B9
:10287800010F29D0954B9B6803F00C03042B1AD049
:10288800924B9B6803F00C03082B0FD06368B3F5D9
:10289800803F40D0002B54D18C4B1A6822F48032F0
:1028A8001A601A6822F480221A6039E0874B5B6844
:1028B80013F4800FEAD0854B1B6813F4003F03D054
:1028C8006368002B00F0D081236813F0020F74D0E6
:1028D8007E4B9B6813F00C0F5ED07C4B9B6803F01B
:1028E8000C03082B53D0E368002B00F08980774A4B
:1028F800136843F00103136001F044FA0546734B73
:102908001B6813F0020F72D101F03CFA401B022839
:10291800F5D90320ADE16D4A136843F480331360A1
:1029280063682BB301F02EFA0546684B1B6813F455
:10293800003FC9D101F026FA401B6428F5D90320CD
:1029480097E1B3F5A02F09D0604B1A6822F48032C2
:102958001A601A6822F480221A60E1E75B4B1A6851
:1029680042F480221A601A6842F480321A60D7E76B
:1029780001F008FA0546554B1B6813F4003FA3D035
:1029880001F000FA401B6428F5D9032071E14F4B90
:102998005B6813F4800FA6D14C4B1B6813F0020F31
:1029A80003D0E368012B40F06181484A136823F0A3
:1029B800F803216943EAC1031360236813F0080F81
:1029C80046D0636983B3414A536F43F001035367A9
:1029D80001F0D8F905463D4B5B6F13F0020F37D174
:1029E80001F0D0F9401B0228F5D9032041E1374A0C
:1029F800136823F0F803216943EAC1031360DCE795
:102A0800324A136823F00103136001F0BBF905464D
:102A18002E4B1B6813F0020FCFD001F0B3F9401B07
:102A28000228F5D9032024E1284A536F23F0010333
:102A3800536701F0A7F90546244B5B6F13F0020FAB
:102A480006D001F09FF9401B0228F5D9032010E1B8
:102A5800236813F0040F7DD01C4B1B6C13F0805FB0
:102A68001ED11A4B1A6C42F080521A641B6C03F088
:102A780080530193019B0125154B1B6813F4807F3C
:102A880010D0A368012B25D0002B3BD10F4B1A6F18
:102A980022F001021A671A6F22F004021A671EE078
:102AA8000025E9E70A4A136843F48073136001F0CC
:102AB80069F90646064B1B6813F4807FE1D101F0E3
:102AC80061F9801B6428F5D90320D2E00038024060
:102AD800007000406E4A136F43F001031367A36848
:102AE80033B301F04FF90646694B1B6F13F0020F21
:102AF8002FD101F047F9801B41F288339842F3D96E
:102B08000320B6E0052B09D0614B1A6F22F00102B1
:102B18001A671A6F22F004021A67E0E75C4B1A6F13
:102B280042F004021A671A6F42F001021A67D6E7E8
:102B380001F028F90646564B1B6F13F0020F08D018
:102B480001F020F9801B41F288339842F3D9032021
:102B58008FE0FDB9A369002B00F08A804C4A926887
:102B680002F00C02082A58D0022B19D0484A1368E0
:102B780023F08073136001F005F90446444B1B6889
:102B880013F0007F47D001F0FDF8001B0228F5D9AB
:102B980003206EE03E4A136C23F080531364D9E798
:102BA8003B4A136823F08073136001F0EBF8054685
:102BB800374B1B6813F0007F06D001F0E3F8401B89
:102BC8000228F5D9032054E0E369226A1343626AB4
:102BD80043EA8213A26A5208013A43EA0243E26ACC
:102BE80043EA026343F00053294A5360136843F0F1
:102BF8008073136001F0C6F80446254B1B6813F078
:102C0800007F06D101F0BEF8001B0228F5D9032089
:102C18002FE000202DE000202BE01D4A5268012BF8
:102C280029D002F48003E1698B4226D102F03F03E8
:102C3800216A8B4223D1616A47F6C0731340B3EB14
:102C4800811F1ED102F44031A36A5B08013BB1EB3E
:102C5800034F18D102F07062E36AB2EB036F14D12C
:102C6800002006E001207047012002E0012000E07A
:102C7800002002B070BD0120FBE70120F9E7012028
:102C8800F7E70120F5E70120F3E70120F1E700BFAE
:102C98000038024008B5334B9B6803F00C03042B43
:102CA8005BD0082B5BD12F4B5A6802F03F025B6860
:102CB80013F4800F2CD02B4B5868C0F388104FEAC0
:102CC800401CBCEB000C6EEB0E0E4FEA8E1343EA71
:102CD8009C634FEA8C11B1EB0C0163EB0E03DB0034
:102CE80043EA5173C90011EB000C43F10003590288
:102CF80000234FEA4C2041EADC51FEF777FB194BE1
:102D08005B68C3F3014301335B00B0FBF3F008BD1C
:102D1800144B5868C0F388104FEA401CBCEB000CF9
:102D28006EEB0E0E4FEA8E1343EA9C634FEA8C114A
:102D3800B1EB0C0163EB0E03DB0043EA5173C900EE
:102D480011EB000C43F10003990200234FEA8C2099
:102D580041EA9C51FEF74AFBD1E70348D7E703480D
:102D6800D5E700BF0038024000127A000024F400C2
:102D7800002800F0A08070B50D460446524B1B6831
:102D880003F00F038B420BD24F4A136823F00F0353
:102D98000B431360136803F00F038B4240F08D80E0
:102DA800236813F0020F17D013F0040F04D0474A1A
:102DB800936843F4E0539360236813F0080F04D03A
:102DC800424A936843F460439360404A936823F00F
:102DD800F003A1680B439360236813F0010F31D00F
:102DE8006368012B20D0022B25D0384A126812F0D4
:102DF800020F64D035498A6822F0030213438B60BE
:102E080000F0C0FF0646314B9B6803F00C03626874
:102E1800B3EB820F16D000F0B5FF801B41F2883368
:102E28009842F0D9032045E0284A126812F4003F7E
:102E3800E0D101203EE0254A126812F0007FD9D186
:102E4800012037E0204B1B6803F00F03AB420AD97F
:102E58001D4A136823F00F032B431360136803F014
:102E68000F03AB422DD1236813F0040F06D0174A85
:102E7800936823F4E053E1680B439360236813F0ED
:102E8800080F07D0114A936823F46043216943EA85
:102E9800C1039360FFF7FEFE0C4B9B68C3F303135B
:102EA8000B4AD35CD8400B4B18600B4B186800F0EA
:102EB8002BFF002070BD012070470120FAE7012098
:102EC800F8E70120F6E700BF003C02400038024066
:102ED800405C00086C02002068020020014B186862
:102EE800704700BF6C02002008B5FFF7F7FF044BDE
:102EF8009B68C3F38223034AD35CD84008BD00BF54
:102F080000380240385C000808B5FFF7E7FF044BBB
:102F18009B68C3F34233034AD35CD84008BD00BF63
:102F280000380240385C0008F0B583B004460668F3
:102F380016F001060DD0A74B9A6822F400029A6099
:102F48009A68416B0A439A60436B002B00F0398101
:102F58000026256815F4002511D09E4AD2F88C3039
:102F680023F44013E16B0B43C2F88C30E36BB3F5E9
:102F7800801F00F02881002B00F02781002523689E
:102F880013F4801F0FD0934AD2F88C3023F44003F7
:102F9800216C0B43C2F88C30236CB3F5800F00F022
:102FA800168103B90125236813F0807F00D001261C
:102FB80013F0200F40F01081236813F0100F0CD08D
:102FC800844BD3F88C2022F08072C3F88C20D3F87D
:102FD8008C20A16B0A43C3F88C20236813F4804F1C
:102FE80008D07C4AD2F8903023F44033616E0B430A
:102FF800C2F89030236813F4004F08D0754AD2F80D
:10300800903023F44023A16E0B43C2F8903023681C
:1030180013F4803F08D06F4AD2F8903023F440135D
:10302800E16E0B43C2F89030236813F4003F08D0D8
:10303800684AD2F8903023F44003216F0B43C2F85A
:103048009030236813F0400F08D0624AD2F89030CD
:1030580023F00303616C0B43C2F89030236813F02C
:10306800800F08D05B4AD2F8903023F00C03A16C93
:103078000B43C2F89030236813F4807F08D0554A78
:10308800D2F8903023F03003E16C0B43C2F8903053
:10309800236813F4007F08D04E4AD2F8903023F00A
:1030A800C003216D0B43C2F89030236813F4806F7E
:1030B80008D0484AD2F8903023F44073616D0B432E
:1030C800C2F89030236813F4006F08D0414AD2F850
:1030D800903023F44063A16D0B43C2F8903023680D
:1030E80013F4805F08D03B4AD2F8903023F4405361
:1030F800E16D0B43C2F89030236813F4005F08D0E9
:10310800344AD2F8903023F44043216E0B43C2F87E
:103118009030236813F4800F08D02E4AD2F89030EC
:1031280023F08063A16F0B43C2F89030236813F437
:10313800001F0DD0274AD2F8903023F00063E16FCA
:103148000B43C2F89030E36FB3F1006F00F0AA8030
:10315800236813F0080F00D0012513F4802F08D03E
:103168001C4AD2F8903023F04073616F0B43C2F8C9
:103178009030236813F4000F09D0164AD2F8903023
:1031880023F08053D4F880100B43C2F8903026B94E
:10319800236813F0007F00F005810E4A136823F0BE
:1031A8008063136000F0EEFD06460A4B1B6813F0BF
:1031B800006F79D000F0E6FD801B6428F5D9032064
:1031C800F3E00126C5E60126D5E60125D7E6012666
:1031D800E7E600BF003802407F4B1A6C42F080528D
:1031E8001A641B6C03F080530193019B7B4A13689C
:1031F80043F48073136000F0C5FD0746774B1B68E6
:1032080013F4807F06D100F0BDFDC01B6428F5D9FA
:103218000320CAE0704B1B6F13F4407315D0226B68
:1032280002F440729A4210D06B4B1A6F22F440722B
:10323800196F41F480311967196F21F480311967CA
:103248001A671B6F13F0010F12D1236B03F440723E
:10325800B2F5407F1DD0604A936823F4F813936059
:103268005D490B6F226BC2F30B0213430B67A3E696
:1032780000F088FD0746584B1B6F13F0020FE4D18E
:1032880000F080FDC01B41F288339842F3D9032037
:103298008BE05148826822F4F812514919400A43D8
:1032A8008260DDE7012553E7236813F0010F13D08F
:1032B800636B8BB9484AD2F88430D2F884106068BE
:1032C80003F4403343EA801301F070610B43A168B3
:1032D80043EA0173C2F88430236813F4002F03D043
:1032E800E26BB2F5801F06D013F4801F1ED0236C4A
:1032F800B3F5800F1AD1384AD2F88430D2F8841046
:10330800606803F4403343EA8013E06843EA0063EB
:1033180001F0E0410B43C2F88430D2F88C3023F03E
:103328001F03616A01390B43C2F88C30236813F01C
:10333800807F11D0284AD2F88400D2F884106668B9
:1033480023691B0443EA861300F07060034301F00D
:10335800E0410B43C2F88430236813F0007F0DD09E
:10336800626823691B0443EA8213E26843EA026342
:10337800A26843EA0273184AC2F88430164A1368EE
:1033880043F08063136000F0FDFC0646124B1B6897
:1033980013F0006F06D100F0F5FC801B6428F5D906
:1033A800032002E0012D02D0002003B0F0BD0A4A3C
:1033B800136823F08053136000F0E4FC0546064BC5
:1033C8001B6813F0005F0DD000F0DCFC401B642884
:1033D800F5D90320E9E700BF00380240007000403B
:1033E800FFFCFF0F236813F4002F01D0E26B22B11A
:1033F80013F4801F1DD0236CDBB9354AD2F888300E
:10340800D2F88810606903F4403343EA8013A06956
:1034180043EA006301F0E0410B43C2F88830D2F878
:103428008C3023F4F853A16A013943EA0123C2F826
:103438008C30236813F4001F03D0E36FB3F1006FDF
:1034480031D0236813F0080F19D0214AD2F8881018
:10345800D2F88830606903F4403343EA801301F0FE
:1034680070610B43E16943EA0173C2F88830D2F80E
:103478008C3023F44033E16A0B43C2F88C30144A91
:10348800136843F08053136000F07CFC0446104B33
:103498001B6813F0005F19D100F074FC001B64284E
:1034A800F5D9032081E70A4AD2F88800D2F88810B3
:1034B8006569236A1B0443EA851300F070600343BF
:1034C80001F0E0410B43C2F88830BAE700206CE70E
:1034D8000038024000230F2B00F2F48070B582B050
:1034E80066E085684FEA430E032404FA0EF425EAE1
:1034F8000405CC6804FA0EF42C438460446824EA7A
:1035080002044A68C2F300129A40224342605DE016
:10351800DC08083450F8242003F00705AD004FF00C
:103528000F0E0EFA05FE22EA0E0E0A69AA4042EABA
:103538000E0240F824205DE0092200E0002202FA91
:103548000EF22A430234604D45F824205F4A9468FD
:103558006FEA0C0224EA0C054E6816F4801F01D0AD
:103568004CEA0405594CA560E46802EA04054E6873
:1035780016F4001F01D04CEA0405544CE560646859
:1035880002EA04054E6816F4003F01D04CEA04052F
:103598004E4C6560246822404D6815F4803F01D088
:1035A8004CEA0402494C226001330F2B00F2888058
:1035B80001229A400C6804EA020C32EA0404F3D1AE
:1035C8004C6804F00304013C012C8AD94A6802F0D3
:1035D8000302032A09D0C4685D000322AA4024EA32
:1035E80002048A68AA402243C2604A6802F00302C1
:1035F800022A8DD004684FEA430E032202FA0EF223
:1036080024EA02044A6802F0030202FA0EF2224394
:1036180002604A6812F4403FC6D02D4A546C44F404
:1036280080445464526C02F480420192019A9C08CE
:10363800A51C254A52F8255003F0030E4FEA8E0EBA
:103648000F2202FA0EF225EA0205224A90423FF4BE
:1036580075AF02F58062904222D002F580629042F6
:1036680020D002F5806290421ED002F5806290421E
:103678001CD002F5806290421AD002F58062904216
:1036880018D002F58062904216D002F5806290420E
:1036980014D002F5806290423FF44EAF0A224EE702
:1036A80001224CE702224AE7032248E7042246E7C0
:1036B800052244E7062242E7072240E708223EE7C0
:1036C80002B070BD704700BF00380140003C0140A7
:1036D80000380240000002400AB1816170470904C5
:1036E8008161704730B405682C6824F480242C600C
:1036F800046863608368402B05D003689960036899
:10370800DA6030BC704703689A600368D960F8E7EC
:1037180010B40368D9B210390A4AA2FB014212094F
:10372800094CA25CC2655F2907D96FF3090304330A
:103738008365806D5DF8044B70476FF309038365FB
:10374800F7E700BFABAAAAAA305C0008836A8269BF
:1037580092B9012B0AD0022B02D00BB1002070477E
:10376800C36A13F0807F28D100207047C36AB3F181
:10377800C07F24D000207047B2F5005F09D0022B2B
:1037880025D9032B25D1C36A13F0807F23D10020CC
:103798007047032B03D8DFE803F01404140A002051
:1037A8007047C36A13F0807F0DD100207047C36A49
:1037B800B3F1C07F09D00020704701207047012075
:1037C8007047012070470120704701207047012091
:1037D80070470020704701207047000070B504460C
:1037E80000F0D0FA002C5CD00546022384F835306E
:1037F800002384F834302268136823F0010313602F
:1038080023681A6812F0010F0AD000F0BBFA431BB4
:10381800052BF5D920236365032084F8350070BD96
:103828001A68214911406268A0680243E0680243AF
:103838002069024360690243A0690243E0690243C8
:10384800206A02430A43616A04291ED01A60266866
:10385800756925F00705636A1D43042B07D1A36A20
:103868001D43E36A1BB12046FFF770FF90B97561ED
:103878002046FFF74DFFE26D3F2393408360002011
:103888006065012384F83530C9E7E16A206B01439C
:103898000A43DBE740236365002384F835300120C1
:1038A800BDE70120BBE700BF3F8010F038B50446F4
:1038B800856D90F83400012830D0012084F8340058
:1038C80094F83500C0B2012804D0002384F83430BD
:1038D800022038BD022084F83500002060652046AB
:1038E800FFF700FFE26D3F239340AB602268136847
:1038F80043F0160313602268536943F08003536151
:10390800236C23B12268136843F00803136022680C
:10391800136843F0010313600020DAE70220D8E7B8
:10392800F0B583B0044600230193724B1D68724BB7
:10393800A3FB0535AD0A876D3E68C26D0823934029
:10394800334210D003681A6812F0040F0BD01A68BB
:1039580022F004021A60C26D08239340BB60436DD5
:1039680043F001034365E26D01239340334209D0DC
:103978002268526912F0800F04D0BB60636D43F077
:1039880002036365E26D04239340334209D0226841
:10399800126812F0020F04D0BB60636D43F0040399
:1039A8006365E26D10239340334224D02268126885
:1039B80012F0080F1FD0BB6023681A6812F4802F1A
:1039C8000DD01B6813F4002F04D1236C9BB1204643
:1039D800984710E0A36C73B1204698470BE01A682B
:1039E80012F4807F03D11A6822F008021A60236C4F
:1039F8000BB120469847E26D20239340334255D0BF
:103A08002268126812F0100F50D0BB6094F835305D
:103A1800DBB2052B0ED023681A6812F4802F33D03E
:103A28001B6813F4002F2AD1636C002B3ED020466C
:103A380098473BE02268136823F016031360226856
:103A4800536923F080035361236CA3B12268136880
:103A580023F008031360E26D3F239340BB6001230A
:103A680084F83530002384F83430236D002B3FD0A0
:103A7800204698473CE0A36C002BE7D1EBE7E36BCB
:103A8800A3B12046984711E01A6812F4807F09D143
:103A98001A6822F010021A60012384F835300023D6
:103AA80084F83430E36B0BB120469847636DFBB163
:103AB800636D13F0010F17D0052384F835302268A1
:103AC800136823F001031360019B01330193AB4298
:103AD80004D823681B6813F0010FF5D1012384F87B
:103AE8003530002384F83430E36C0BB12046984716
:103AF80003B0F0BD6C020020B5814E1B024A13686A
:103B080043F48073136070470070004010B582B0B2
:103B18001B4B1A6C42F080521A641B6C03F08053E2
:103B28000193019B174A136843F48033136000F034
:103B380029F90446134B5B6813F4803F08D100F061
:103B480021F9001BB0F57A7FF4D9032002B010BD2B
:103B58000C4A136843F40033136000F013F9044669
:103B6800084B5B6813F4003F07D100F00BF9001B0A
:103B7800B0F57A7FF4D90320E8E70020E6E700BF34
:103B88000038024000700040002804DB0901C9B277
:103B9800044B1954704700F00F000901C9B2024BD9
:103BA8001954704700E400E014ED00E000B500F09F
:103BB8000700C0F1070CBCF1040F28BF4FF0040C3C
:103BC800031D062B0FD9C31E4FF0FF3E0EFA0CF053
:103BD80021EA000199400EFA03FE22EA0E0241EAA8
:103BE80002005DF804FB0023EEE700000649CB68FD
:103BF80023F4E0631B041B0C000200F4E0600343A1
:103C0800024A1A43CA60704700ED00E00000FA0556
:103C180010B50446054BD868C0F30220FFF7C6FF6D
:103C280001462046FFF7B0FF10BD00BF00ED00E0E1
:103C3800002807DB00F01F02400901239340024AD5
:103C480042F82030704700BF00E100E00138B0F1D1
:103C5800807F0BD24FF0E0235861054AF02182F8AB
:103C680023100020986107221A61704701207047CD
:103C780000ED00E0BFF35F8F044B5A6A22F48032F4
:103C88005A620022C3F89420704700BF00ED00E09C
:103C980040F00100054BC3F894005A6A42F48032A0
:103CA8005A62BFF34F8FBFF36F8F704700ED00E08C
:103CB8004378144AC2F89830D2F8A03023F00103B0
:103CC800C2F8A0304368C2F89C30017BC37A1B0657
:103CD80043EA0173817A43EAC143417B43EA814362
:103CE800817B43EA4143C17B43EA0143417A43EA8A
:103CF8000123017A43EA410301780B43C2F8A0305B
:103D0800704700BF00ED00E010B504460E4B1A786E
:103D18004FF47A73B3FBF2F30C4A1068B0FBF3F07C
:103D2800FFF794FF68B90F2C01D901200AE000229F
:103D380021464FF0FF30FFF76BFF054B1C6000205A
:103D480000E0012010BD00BF640200206C020020CA
:103D58006802002008B50320FFF748FF0020FFF79E
:103D6800D3FFFEF76FF8002008BD0000034A116872
:103D7800034B1B780B441360704700BFB0CF002083
:103D880064020020014B1868704700BFB0CF0020C4
:103D980038B50446FFF7F6FF0546B4F1FF3F02D0F9
:103DA800044B1B781C44FFF7EDFF401BA042FAD3DD
:103DB80038BD00BF6402002000285DD010B504465D
:103DC80090F84130002B46D0242384F841302268F3
:103DD800136823F0010313606368226823F070639B
:103DE80013612268936823F400439360E368012B0E
:103DF80036D0A368226843F404439360E368022B37
:103E080034D02268536823F40063536022685168F1
:103E18001A4B0B4353602268D36823F40043D360E2
:103E2800236962691343A169226843EA0123D360C5
:103E3800E369216A22680B4313602268136843F020
:103E48000103136000206064202384F8413020635C
:103E580084F8420010BD80F84030FEF73FF9B3E720
:103E6800A368226843F400439360C7E72268536855
:103E780043F400635360C9E70120704700800002E3
:103E8800034690F84120D2B2202A23D190F840204E
:103E9800012A21D0012280F84020242280F84120E4
:103EA8000068026822F0010202601868026822F4C1
:103EB80080520260186802681143016019680A6834
:103EC80042F001020A60202283F84120002083F892
:103ED800400070470220704702207047034690F860
:103EE8004120D2B2202A21D190F84020012A1FD0A7
:103EF800012280F84020242280F8412000680268CE
:103F080022F0010202601868026822F4706242EA34
:103F18000122026019680A6842F001020A60202240
:103F280083F84120002083F8400070470220704742
:103F38000220704770B110B50446037933B10223EB
:103F48002371002020610123237110BD4371FDF707
:103F5800E7FFF4E70120704770B50D461146049A53
:103F6800002861D00446407901285FD001206071A3
:103F780002202071002D2FD1A0682D4EC663A068A5
:103F88002C4E0664A0682C4EC6642668306840F43F
:103F98008050306022B1042A1BD02268103201E020
:103FA80022680832002D31D12668306840F400506C
:103FB8003060A068FFF77AFC0023637100282ED1D7
:103FC80021680B6805F010050122AA4013430B6015
:103FD80070BD22680C32E5E7E068184EC663E068F9
:103FE800174E0664E068174EC6642668306840F0CD
:103FF8008050306022B1042A05D022681C32D1E7F3
:1040080022681432CEE722681832CBE72668306877
:1040180040F000503060E068FFF748FCCCE72369C7
:1040280043F004032361D3E70120D1E70220CFE75F
:1040380051400008614000086D400008F540000844
:10404800054100080F41000810B5846B2046FDF7B4
:1040580029FC0123237110BD08B5806BFDF71CFCFA
:1040680008BD704710B5846B236943F004032361CE
:104078002046FFF7F6FF0123237110BD002918BF62
:1040880000282CD030B584468E464379012B28D0A1
:1040980001208CF8050002238CF80430DCF800407D
:1040A800216802F0100240F6FE73934021EA0301F2
:1040B800DEF80030DEF804502B4393400B432360B6
:1040C800DCF800402368C02101FA02F223EA020367
:1040D80023608CF8040000208CF8050030BD012016
:1040E80070470220FAE770477047704710B5846B35
:1040F8002046FFF7F8FF0123237110BD08B5806B38
:10410800FFF7F2FF08BD10B5846B236943F0040381
:1041180023612046FFF7E9FF0123237110BD00004A
:104128005079137943EA002307480B50D0789378E5
:104138001B0443EA0063507843EA002312781343D0
:10414800024A8B50704700BF4080024044800240C2
:1041580030B4002208E0C468DC6051F80C3043F445
:10416800400341F80C300132032A1FD8C16802EB22
:1041780082034FEAC30C01EBC303002441F80C404F
:104188005C609C60DC60941D40F8243051F80C4061
:1041980044F4801441F80C40022ADCD8541C04EB87
:1041A8008404C56805EBC404DC60D6E70023836299
:1041B800C268036803F580531A6130BC704710B4B5
:1041C800002202E00169D9600132032A28D8046973
:1041D80002EB82034FEAC30C04EBC303002144F84B
:1041E8000C1059609960D960196259624FF000410A
:1041F80044F80C10416941F480415960596821F034
:104208000041596002F1120140F82130022AD9D840
:104218000469511C01EB810104EBC104DC60D3E7A4
:104228000023C36503668366C36683650269036802
:1042380003F58053DA605DF8044B704770B50546A6
:104248000C46026813683C491940A37B5B06207C36
:10425800002861D14FF400000343607C00285DD141
:104268004FF480000343A0680343E07F43EA004320
:1042780060690343A07F002852D14FF400500343E4
:10428800207F43EA0033A0690343207943EA80236F
:1042980094F82000002845D14FF400700343E07BD8
:1042A80043EAC013606A034394F8280043EA001302
:1042B8000B4313602B681E680120FFF769FD2B680C
:1042C8001E6029688A6922F0BE021204120CA36CCF
:1042D8001B0494F84C0038BB80200343206D034333
:1042E80094F85500012821D00020034394F8560083
:1042F80001281DD00020034394F85400012819D048
:104308000020034313438B612B689C690120FFF74E
:104318003FFD2B689C6170BD00209DE70020A1E750
:104328000020ACE70020B9E70020D6E70820DCE74A
:104338000420E0E70220E4E70F8120FD70B5054680
:104348000C46026802F580539B692B491940237B70
:10435800002B4DD14FF08063607B43EA4063607F60
:10436800002847D14FF480100343A07B43EA405311
:1043780060690343207F43EAC013A07F43EA8013A8
:10438800206A034394F8240043EA80030B4302F5B0
:10439800805293612B6803F580539E690120FFF7D3
:1043A800F7FC2B6803F580539E612279A36843EAE2
:1043B8004263A26913432269134394F8252043EA10
:1043C800C213A26A43EA8203226813432A6843F4A9
:1043D800000302F5805213602B6803F580531C68B4
:1043E8000120FFF7D5FC2B6803F580531C6070BDD6
:1043F8000023B1E70020B7E7233FDEF870B5A4B08B
:10440800064601258DF83C508DF83D5000240D944A
:104418008DF84B408DF84A508DF848408DF83A5049
:104428008DF830508DF84C408DF83B4014948DF841
:1044380054401D948DF878401F948DF882408DF873
:1044480080404FF4804310934FF4006311938DF82C
:1044580081400BA9FFF7F2FE8DF80C508DF80D5036
:104468008DF81D508DF80E5005948DF81C408DF870
:104478001E4008948DF824508DF804504FF4803372
:1044880002934FF4800306934FF4005304938DF87E
:1044980025500A94009469463046FFF74FFF24B030
:1044A80070BD0000002868D030B583B00446D0F84D
:1044B8008430002B32D0324B5A6C42F480425A641A
:1044C8005B6C03F480430193019B2E4B5A6822F4E2
:1044D80000025A605A68A1680A435A605B682368F8
:1044E80003F580531A6842F001021A60FFF74AFC8C
:1044F8000546236803F580531B6813F0010F13D09A
:10450800FFF740FC401BB0F5FA7FF2D90423C4F84A
:104518008830E023C4F8843001202CE02023C0F840
:104528008430FDF755FDC6E72046FFF767FF2046B4
:10453800FFF70EFE2046FFF742FE62680021204684
:10454800FFF7EEFD2268D36B43F40273D36322684E
:10455800D2F80C110C4B0B43C2F80C312268D2F87C
:10456800103143F40313C2F810310020C4F8880056
:104578001023C4F8843003B030BD0120704700BF59
:1045880000380240003801406000020090F83D30D9
:10459800DBB2012B35D1022380F83D3003681B4A7A
:1045A800B3F1804F18BF93421DD0A2F57C429342CD
:1045B80019D002F58062934215D002F580629342C9
:1045C80011D002F5784293420DD002F57052934211
:1045D80009D0A2F59432934205D01A6842F001023C
:1045E8001A60002070479968094A0A40062A18BFCD
:1045F800B2F5803F07D01A6842F001021A60002025
:104608007047012070470020704700BF000001403C
:104618000700010070B403683C4A904214BF0022AE
:104628000122B0F1804F14BF144642F00104ACB926
:10463800374DA84214BF00250125364EB0420DD093
:1046480065B905F1804505F58235A84214BF0025F6
:10465800012506F50066B04200D01DB123F07003B5
:104668004D682B43002C33D1294CA04214BF0024A1
:104678000124284DA8422BD054BB04F1804404F5F2
:104688008234A04214BF0024012405F50065A84225
:104698001ED0ECB9204CA04214BF0024012405F51B
:1046A8009A35A84214D09CB91C4CA04214BF0024CF
:1046B800012405F50065A8420AD04CB9184CA0425F
:1046C80014BF00240124A5F59635A84200D01CB1DA
:1046D80023F44073CC68234323F080034C692343BD
:1046E8008C68C4620C6884620E4CA04208BF42F019
:1046F80001020AB10A690263026842F00402026018
:1047080001224261036070BC704700BF0000014095
:104718000008004000040040004401400018004028
:10472800002000400004014060B310B5044690F832
:104738003D3013B3022384F83D30214651F8040B71
:10474800FFF768FF012384F8483084F83E3084F886
:104758003F3084F8403084F8413084F8423084F89F
:10476800433084F8443084F8453084F8463084F87F
:10477800473084F83D30002010BD80F83C30FDF70C
:10478800F3FCD7E70120704790F83C20012A45D078
:1047980070B40346012280F83C20022280F83D20B4
:1047A8000268506894681E4E1E4DAA4218BFB24255
:1047B80003D120F470004D68284320F070000D6884
:1047C800284350601A681648B2F1804F18BF8242D9
:1047D80017D0A0F57C40824213D000F58060824259
:1047E8000FD000F5806082420BD000F578408242FD
:1047F80007D000F57050824203D0A0F59430824271
:1048080004D124F08004896821439160012283F84F
:104818003D20002083F83C0070BC704702207047A0
:104828000000014000040140026852E8003F23F400
:10483800907342E800310029F6D1026802F10803BA
:1048480053E8003F23F00103083242E80031002911
:10485800F3D1036E012B06D02023C0F8803000234B
:10486800036683667047026852E8003F23F010032E
:1048780042E800310029F6D1EEE7000010B5044601
:1048880083680269134342691343C2691343016889
:104898000868914A02401A430A602268536823F460
:1048A8004053E1680B435360A269236A1A432168A5
:1048B8008B6823F4306313438B602368874A9342E1
:1048C80018D0874A93423AD0864A93424FD0864AB4
:1048D80093425ED0854A93426DD0854A93427FD0F9
:1048E800844A934200F09180834A934200F0A28068
:1048F80010230BE0814BD3F8903003F00303032B14
:104908001BD8DFE803F00216AB180123E069B0F505
:10491800004F00F0D780082B00F23881DFE813F051
:1049280014012701120136012A0136013601360128
:104938002D010423EAE70823E8E71023E6E76F4B95
:10494800D3F8903003F00C030C2B0ED8DFE803F0FB
:10495800070D0D0D090D0D0D880D0D0D0B00002314
:10496800D4E70423D2E70823D0E71023CEE7634B2C
:10497800D3F8903003F03003202B73D005D8002BE8
:1049880072D0102B72D10423C0E7302B70D10823CA
:10499800BCE75A4BD3F8903003F0C003802B69D0A2
:1049A80005D8002B68D0402B68D10423AEE7C02B74
:1049B80066D10823AAE7514BD3F8903003F440732B
:1049C800B3F5007F5ED006D8002B5DD0B3F5807FAD
:1049D8005CD104239AE7B3F5407F59D1082395E7C2
:1049E800464BD3F8903003F44063B3F5006F51D0D1
:1049F80006D8002B50D0B3F5806F4FD1042385E73C
:104A0800B3F5406F4CD1082380E73C4BD3F8903086
:104A180003F44053B3F5005F44D006D8002B43D0CD
:104A2800B3F5805F42D1042370E7B3F5405F3FD10F
:104A380008236BE7314BD3F8903003F44043B3F5C8
:104A4800004F37D005D8BBB3B3F5804F36D1042318
:104A58005CE7B3F5404F33D1082357E7022355E706
:104A6800022353E7022351E700234FE710234DE7C2
:104A780010234BE7022349E7002347E7102345E7C4
:104A8800102343E7022341E700233FE710233DE7D4
:104A980010233BE7022339E7012337E7102335E7E3
:104AA800102333E7022331E700232FE710232DE7F4
:104AB80010232BE7022329E7002327E7102325E704
:104AC800102323E7082B5BD8DFE803F01A343A5A9F
:104AD800375A5A5A1E0000BFF369FFEF0010014011
:104AE8000044004000480040004C00400050004096
:104AF8000014014000780040007C0040003802406B
:104B0800FEF7F2F900283DD06268530803EB400332
:104B1800B3FBF2F3A3F110014FF6EF72914233D8D1
:104B28009AB222F00F02C3F3420313432268D36000
:104B3800002030E0FEF7E8F9E4E7FEF7ABF8E1E73C
:104B48001748E1E7164802E0FEF7CEF900B36368BC
:104B580000EB5300B0FBF3F0A0F110024FF6EF7337
:104B68009A4217D8236880B2D860002013E0FEF775
:104B7800CBF9EBE7FEF78EF8E8E74FF40040E6E7FD
:104B8800012008E0002006E0012004E0012002E006
:104B9800002000E001200023A366E36610BD00BFEB
:104BA8000024F400436A13F0080F06D00268536823
:104BB80023F40043416B0B435360436A13F0010F26
:104BC80006D00268536823F40033816A0B435360AC
:104BD800436A13F0020F06D00268536823F4803347
:104BE800C16A0B435360436A13F0040F06D002688E
:104BF800536823F48023016B0B435360436A13F01B
:104C0800100F06D00268936823F48053816B0B431E
:104C18009360436A13F0200F06D00268936823F468
:104C28000053C16B0B439360436A13F0400F0AD0E3
:104C38000268536823F48013016C0B435360036CC0
:104C4800B3F5801F0BD0436A13F0800F06D00268BB
:104C5800536823F40023816C0B4353607047026848
:104C6800536823F4C003416C0B435360EBE72DE911
:104C7800F84305460E4617469946DDF820802B680E
:104C8800DC6936EA04040CBF01240024BC423AD192
:104C9800B8F1FF3FF3D0FFF775F8A0EB09004045E6
:104CA80034D8B8F1000F33D02B681A6812F0040F0B
:104CB800E5D0B6F1400218BF0122802EDFD0002ACD
:104CC800DDD0DA6912F0080F11D1DA6912F4006F39
:104CD800D5D04FF400621A622846FFF7A5FD2023BD
:104CE800C5F88430002385F8783003200CE00824C8
:104CF8001C622846FFF798FDC5F88440002385F814
:104D08007830012000E00020BDE8F8830320FBE7AD
:104D18000320F9E710B582B004460023C0F88430B8
:104D2800FFF730F823681B6813F0080F0AD1202317
:104D3800E367C4F8803000202066606684F8780055
:104D480002B010BD6FF07E430093034600224FF47B
:104D580000112046FFF78BFF0028E8D0226852E8B0
:104D6800003F23F0800342E800310029F6D12023D8
:104D7800E367002384F878300320E1E768B310B5CF
:104D88000446C36F03B32423E3672268136823F040
:104D980001031360636AE3B92046FFF76FFD01283A
:104DA80011D02268536823F49043536022689368B3
:104DB80023F02A0393602268136843F00103136009
:104DC8002046FFF7A7FF10BD80F87830FDF7E2F91D
:104DD800D9E72046FFF7E6FEDEE70120704730B549
:104DE80083B0002800F082800446056890F8953466
:104DF800C3B1032384F89534B5F1A04F17D02068C8
:104E080000F0F8F8237C8DF80030231D0ECB2068C5
:104E180000F0AEF870B1022384F8953401252846D5
:104E280003B030BD80F89434FDF7FAF9E1E70023C8
:104E3800A371E4E70021206800F00AFA024608B9E5
:104E4800034617E0022384F895340125E7E703EBCE
:104E5800C30104EB8101012048750B75CB85002047
:104E68000876C861086203EBC30104EB810148625C
:104E78000133DBB220799842E9D816E002EBC2038D
:104E880004EB8303002183F8551283F8542283F836
:104E98005812C3F85C12C3F8601202EBC20304EBA9
:104EA8008303C3F864120132D2B29042E6D8237C5D
:104EB8008DF80030231D0ECB206800F0F1F8054670
:104EC80058B900236374012384F89534237B012B9C
:104ED80008D0206800F0AAF9A1E7022384F89534E5
:104EE80001259CE7204600F003F8F2E7012596E744
:104EF800034602680121C0F8D814002083F8CC04C6
:104F0800936943F000639361516D024B0B43536502
:104F1800704700BF0300001082B000230193019B7B
:104F280001330193019BB3F1706F1CD80369002B07
:104F3800F5DA0A23019302E0019B013B0193019BEF
:104F4800002BF9D1036943F001030361019B01338D
:104F58000193019BB3F1706F08D8036913F0010F37
:104F6800F4D1002000E0032002B070470320FBE7E3
:104F780084B010B5044603A880E80E009DF81130EF
:104F8800012B1FD1A36B23F48033A363E268184B72
:104F98001340E360E36823F44013E3609DF818309E
:104FA800012B0AD02046FFF7B7FF9DF80E30012BE2
:104FB80014D0BDE8104004B07047E36843F4801390
:104FC800E360EFE7E36843F04003E3602046FFF760
:104FD800A3FFA36B43F48033A363E6E7A36843F01E
:104FE8000603A360A36843F02003A360E1E700BFC2
:104FF800BFFFBDFF836823F0010383600020704773
:1050080082B000230193019B01330193019BB3F10B
:10501800706F15D80369002BF5DA00230193890115
:1050280041F020010161019B01330193019BB3F120
:10503800706F08D8036913F0200FF4D1002000E046
:10504800032002B070470320FBE782B000230193DE
:10505800019B01330193019BB3F1706F13D803696E
:10506800002BF5DA0023019310230361019B013320
:105078000193019BB3F1706F08D8036913F0100F07
:10508800F4D1002000E0032002B070470320FBE7C2
:10509800D0F800381943C0F8001800207047000005
:1050A80084B0F8B5044607A880E80E00002306E09F
:1050B80003F1400204EB82020021516001330E2B00
:1050C800F6D99DF8266006BBD4F8043843F00203ED
:1050D800C4F80438A36B23F40013A363236843F0D4
:1050E80040032360236843F0800323600023C4F84F
:1050F800003E9DF82130012B11D19DF81F304BB98E
:1051080000212046FFF7C4FF0DE0A36B43F4001312
:10511800A363EBE701212046FFF7BAFF03E0032171
:105128002046FFF7B5FF10212046FFF769FF054627
:1051380000B101252046FFF788FF00B1012504F5DD
:10514800006C0023CCF81030CCF81430CCF81C30AC
:105158000AE0CBB94FF00060C2F8000900220A61EA
:105168004FF67F328A6001339DF81C10994210D99E
:1051780004EB431202F51061D2F800090028E8DBBD
:105188000020C2F80009E9E74FF09040C2F8000992
:10519800E4E700230AE0BBB14FF09047C2F8007B78
:1051A800002202614FF67F3282600133994210D9A2
:1051B80004EB431202F53060D2F8007B002FEADBE3
:1051C8000027C2F8007BEBE74FF00067C2F8007BCE
:1051D800E6E7DCF8103023F48073CCF810300023B5
:1051E800A3616FF0804363619DF81E301BB9A3690A
:1051F80043F01003A361A2690A4B1343A3619DF80E
:1052080022301BB1A36943F00803A361012E04D027
:105218002846BDE8F84004B07047A269024B134322
:10522800A361F5E700383C8004000040D0F8003E58
:1052380023F00303C0F8003ED0F8043843F002031B
:10524800C0F8043800207047406900F0010070473A
:1052580038B50546C36823F0C043C360012913D09D
:1052680019BBC36843F08043C36000240A20FEF7DB
:105278008FFD0A342846FFF7E7FF08B1C72CF5D998
:10528800C82C14D0002038BDC36843F00053C36055
:1052980000240A20FEF77CFD0A342846FFF7D4FFD5
:1052A8000128EDD0C72CF4D9EAE70120EBE701206B
:1052B800E9E70000034AD2F8883043F47003C2F8E3
:1052C8008830704700ED00E0C0ED020A80ED030A67
:1052D80000230360DFED047A20EE270AC0EE207A6F
:1052E800C0ED017A704700BFDB0FC940DFF834D04A
:1052F800FFF7E0FF0C480D490D4A002302E0D4589F
:10530800C4500433C4188C42F9D30A4A0A4C002307
:1053180001E013600432A242FBD3FAF795FFFCF7D1
:1053280003FD7047000005200000002070020020E7
:10533800605C0008B0030020B4CF0020FEE7000046
:10534800F8B5069E6FF040440F4682603444054627
:105358001E460780E219002118469200FAF79CFFC2
:105368006E60F8BD2DE9F04F06462DED108B89B023
:105378003488D6F804C004906FF040400593DB08E9
:1053880020440294D6F808800CEB80000393019027
:1053980000F0EB814FEAD4099E4604F0070A00F1B9
:1053A80020074FEA491301F120060791114608EB3F
:1053B8000300043B0CF1200402F12005CDF818C0CD
:1053C800524684468A464846994656F8203C211F4C
:1053D8009FEDEF3A47F8203C56F81C3C47F81C3C38
:1053E80056F8183C47F8183C56F8143C47F8143C53
:1053F80056F8103C47F8103C56F80C3C47F80C3C63
:1054080056F8083C47F8083C56F8043C47F8043C72
:1054180014ED088A54ED072A14ED062A54ED051AEE
:1054280014ED041A54ED030A14ED020A002800F0E2
:10543800F681B0EE439A08F12001B0EE43AA04F1D8
:105448001C03F0EE43AA8346B0EE43BAF0EE43BA2B
:10545800B0EE43CAB0EE434A51ED083ABBF1010B36
:1054680053ED088A01F1200123EE88FA51ED0F4A25
:1054780063EEA2EA13ED078A23EE82EA11ED0E5AD3
:1054880063EEA1DA51ED0D5A23EE81DA11ED0C6AC3
:1054980063EEA0CA51ED0B6A63EE809A11ED0A7AA9
:1054A80063EEA83A51ED097A3FEE044A03F120036E
:1054B80024EEA2FA53ED0E2A3EEE8CCA7EEE2BBAEB
:1054C80064EE82EA24EEA1EA3DEE8BBA7DEE2AAACA
:1054D80064EE81DA24EEA0DA3CEE8AAA39EE899AE3
:1054E80064EE80CA68EEA49A33EE833A64EE884A82
:1054F8003FEE044A3EEE8CCA25EE02FA13ED0D2A61
:1055080065EE21EA74EE834A7EEE2BBA3DEE8BBA45
:1055180025EE01EA65EE20DA7DEE2AAA3CEE8AAA9B
:1055280025EE00DA68EE85CA39EE899A68EE059AA2
:1055380025EE225A3FEE044A3EEE8CCA25EEA1FA29
:1055480053ED0C1A65EE81EA35EE245A7EEE2BBA3D
:105558003DEE8BBA25EEA0EA65EE80DA7DEE2AAA4A
:105568003CEE8AAA28EEA5DA68EE25CA39EE899AB1
:1055780062EEA59A65EE825A3CEE8AAA3FEE044A8C
:1055880075EE855A26EE01FA13ED0B1A22EE065A2D
:105598003EEE8CCA7EEE2BBA66EE20EA26EE00EAD4
:1055A8003DEE8BBA7DEE2AAA68EE86DA28EE06DA98
:1055B80062EE86CA39EE899A26EE216A3FEE044ADF
:1055C8003EEE8CCA26EEA0FA53ED0A0A66EE80EA91
:1055D80036EE256A7EEE2BBA61EEA65A28EEA6EACA
:1055E8003DEE8BBA7DEE2AAA68EE26DA22EEA6DA1E
:1055F8007CEE8ACA35EE099A22EE26AA66EE816A00
:105608007DEE2AAA35EE899A3FEE044A3EEE8CCA10
:1056180027EE00FA13ED090A68EE87EA7EEE2BBA48
:105628003DEE8BBA28EE07EA62EE87DA22EE07DA59
:105638007AEE2CCA76EE866A21EE87AA27EE203A01
:1056480021EE076A68EEA78A68EE275A22EEA75A63
:1056580062EE274A3DEE2ADA7AEE2CCA61EEA7AA54
:1056680021EE27AA36EE097A3FEE044A20EEA79AE1
:105678003EEE8CCA7EEE2BBA3DEE8BBA33EE263A5E
:1056880067EE807A38EE844A35EE8CCA75EE2BBA0E
:1056980034EE8BBA7AEE8DAA3AEE2CAA39EE079A36
:1056A80037EE833A7FF4D8AE09EB0401E346A2B3A0
:1056B8001346BBEC016A013BF1EC015A66EE088A1D
:1056C80066EE223A66EE024A26EE215A66EE016A34
:1056D80026EE207A66EE007A26EE256AB0EE628A19
:1056E80034EE284AF0EE422A3CEE23CAB0EE612A94
:1056F8007BEEA4BAF0EE411A3BEE05BAB0EE601AA2
:105708007AEEA6AAF0EE400A3AEE07AAB0EE650ACB
:1057180039EE279A33EE063ACBD1BEF1010E05EDEC
:10572800084A05ED07CA07F1200745ED06BA06F154
:10573800200605ED05BA04F1200445ED04AA05F19B
:10574800200505ED0BAA05ED0A9A05ED093A7FF447
:105758003CAE039B524601985B01DDF818C00799DF
:1057680018449C4419441A440190059B13F0070EF1
:1057780022D0019F76466546DDF808A051F8049BC3
:1057880053464446DFED026A284647F8049B01E089
:1057980000000000B0EC017A013BF4EC017A67EEFE
:1057A800277A76EEA76AF5D1013EE2EC016A05F1A7
:1057B8000405E3D10CEB8E0C029B591E049B8E084A
:1057C8005C681DD004F110020CF11003304653F848
:1057D800105C013803F1100302F1100242F8205C5A
:1057E80053F81C5C42F81C5C53F8185C42F8185CCF
:1057F80053F8145C42F8145CE9D133011C449C440E
:1058080011F0030306D022465CF8041B013B42F862
:10581800041BF9D109B0BDEC108BBDE8F08FC3466D
:10582800B0EE439AB0EE43AAF0EE43AAB0EE43BA04
:10583800F0EE43BAB0EE43CAB0EE434A37E700BFD2
:10584800F8B500BFF8BC08BC9E467047F8B500BF65
:08585800F8BC08BC9E46704735
:10586000000FC93F000F494000CB9640000FC940D0
:105870000053FB4000CB164100ED2F41000F494182
:105880000031624100537B41003A8A4100CB96418E
:10589000005CA34100EDAF41007EBC41000FC94157
:1058A00000A0D5410031E24100C2EE410053FB416E
:1058B00000F20342003A0A420083104200CB164233
:1058C00000141D42005C234200A5294200ED2F4236
:1058D00000363642007E3C4200C74242000F494239
:1058E000A2000000F9000000830000006E0000002C
:1058F0004E000000440000001500000029000000D8
:10590000FC0000002700000057000000D10000004C
:10591000F500000034000000DD000000C0000000C1
:10592000DB0000006200000095000000990000000C
:105930003C00000043000000900000004100000017
:10594000FE0000005100000063000000AB000000FA
:10595000DE000000BB000000C50000006100000088
:10596000B7000000240000006E0000003A000000B4
:10597000420000004D000000D2000000E0000000E6
:1059800006000000490000002E000000EA000000B0
:1059900009000000D1000000920000001C0000007F
:1059A000FE0000001D000000EB0000001C000000D5
:1059B000B100000029000000A70000003E00000028
:1059C000E80000008200000035000000F500000043
:1059D0002E000000BB000000440000008400000016
:1059E000E90000009C00000070000000260000009C
:1059F000B40000005F0000007E00000041000000D5
:105A00003900000091000000D600000039000000BD
:105A1000830000005300000039000000F400000083
:105A20009C000000840000005F0000008B0000006C
:105A3000BD000000F9000000280000003B0000004D
:105A40001F000000F800000097000000FF000000A9
:105A5000DE00000005000000980000000F000000BC
:105A6000EF0000002F000000110000008B0000007C
:105A70005A0000000A0000006D0000001F00000036
:105A80006D000000360000007E000000CF00000026
:105A900027000000CB00000009000000B700000054
:105AA0004F000000460000003F00000066000000BC
:105AB0009E0000005F000000EA0000002D000000D2
:105AC0007500000027000000BA000000C7000000B9
