:020000040800F2
:100000000000052051B60108CD6A0008CF6A00083B
:10001000D16A0008D36A0008D56A00080000000011
:10002000000000000000000000000000D76A000887
:10003000D96A000800000000DB6A0008DD6A0008D9
:10004000A1B60108A1B60108A1B60108A1B6010830
:10005000A1B60108A1B60108A1B60108A1B6010820
:10006000A1B60108A1B60108A1B60108A1B6010810
:10007000A1B60108A1B60108A1B60108A1B6010800
:10008000E56A0008A1B60108A1B60108A1B60108F9
:10009000A1B60108A1B60108A1B60108A1B60108E0
:1000A000A1B60108A1B60108A1B60108A1B60108D0
:1000B000A1B60108A1B60108A1B60108A1B60108C0
:1000C000A1B60108A1B60108A1B60108A1B60108B0
:1000D000A1B60108A1B60108A1B60108A1B60108A0
:1000E000A1B60108A1B60108A1B60108A1B6010890
:1000F000A1B60108A1B60108A1B60108A1B6010880
:10010000A1B60108A1B60108A1B60108A1B601086F
:10011000A1B60108A1B60108A1B60108A1B601085F
:10012000F56A0008A1B60108A1B60108A1B6010848
:10013000A1B60108A1B60108A1B60108A1B601083F
:10014000A1B60108A1B60108A1B60108A1B601082F
:10015000A1B60108A1B60108A1B60108A1B601081F
:10016000A1B60108A1B60108A1B60108A1B601080F
:10017000A1B60108A1B60108A1B60108000000005F
:10018000A1B60108A1B60108A1B60108A1B60108EF
:10019000A1B60108A1B60108A1B60108A1B60108DF
:1001A000A1B60108A1B60108A1B60108A1B60108CF
:1001B000A1B60108A1B60108A1B60108A1B60108BF
:0801C000A1B60108A1B6010877
:100200000348044B834202D0034B03B118477047A5
:10021000E80B0020E80B0020000000000548064B1A
:100220001B1AD90F01EBA301491002D0034B03B1F4
:1002300018477047E80B0020E80B00200000000082
:1002400010B5064C237843B9FFF7DAFF044B13B11E
:100250000448AFF300800123237010BD280D002057
:100260000000000060C6010808B5044B1BB104493A
:100270000448AFF30080BDE80840CFE7000000006D
:100280002C0D002060C6010800B50B4C25681446F3
:10029000EE681A4685B003460D464CB107490095F5
:1002A000CDE901143046064900F020FC00F0A4F826
:1002B00004490C46F3E700BF00000020C0DF01083E
:1002C000D0DF0108F0CA010808B513460022FFF785
:1002D000DBFF00BF80EA0102844612F0030F4FD11A
:1002E00011F0030F32D14DF8044D11F0040F51F805
:1002F000043B0BD0A3F101329A4312F0803F04BFBC
:100300004CF8043B51F8043B16D100BF51F8044BA4
:10031000A3F101329A4312F0803FA4F101320BD1D4
:100320004CF8043BA24312F0803F04BF51F8043B59
:100330004CF8044BEAD023460CF8013B13F0FF0FB6
:100340004FEA3323F8D15DF8044B704711F0010FE9
:1003500006D011F8012B0CF8012B002A08BF7047BA
:1003600011F0020FBFD031F8022B12F0FF0F16BFB1
:100370002CF8022B8CF8002012F47F4FB3D1704779
:1003800011F8012B0CF8012B002AF9D1704700BF9E
:1003900070B50F4B0F4DAB42A3EB050607D0B6105F
:1003A000002455F8043B01349847A642F9D81CF0C4
:1003B00057F9094D094B5E1BAB424FEAA60606D022
:1003C000002455F8043B01349847A642F9D870BD83
:1003D000B07D0308B07D0308B07D0308B47D030839
:1003E00010B4044C03460A4620685DF8044B1946D5
:1003F00000F024B90000002008B5062001F0ECF957
:10040000012009F05DFE00BF2DE9F047089C9046F1
:100410000E4602FB03F7814610B1036A002B36D06B
:10042000A3891B0726D5236923B34FB306F1FF3AEF
:10043000002507E023685A1C226083F800C00135BC
:10044000AF4220D0A3681AF801CF013B002BA36074
:10045000F0DAA669B34222466146484602DBBCF1A7
:100460000A0FE7D100F0F8FE0130E8D1B5FBF8F053
:10047000BDE8F0872146484600F01EFA0028D4D097
:100480000020BDE8F087B7FBF8F0BDE8F08701F089
:1004900029FBC5E710B5064C82B08446206800935E
:1004A00013460A466146FFF7AFFF02B010BD00BF1A
:1004B000000000200000000000000000000000001C
:1004C00030B490F800F020F007016FF0000C10F04D
:1004D000070491F820F040F048804FF000046FF0DE
:1004E0000700D1E9002391F840F000F1080082FAFA
:1004F0004CF2A4FA8CF283FA4CF3A2FA8CF34BBBC5
:10050000D1E9022382FA4CF200F10800A4FA8CF23D
:1005100083FA4CF3A2FA8CF3E3B9D1E9042382FA0B
:100520004CF200F10800A4FA8CF283FA4CF3A2FA20
:100530008CF37BB9D1E9062301F1200182FA4CF258
:1005400000F10800A4FA8CF283FA4CF3A2FA8CF3BF
:10055000002BC6D0002A04BF04301A4612BAB2FAE1
:1005600082F200EBD20030BC7047D1E9002304F0E6
:100570000305C4F100004FEAC50514F0040F91F81B
:1005800040F00CFA05F562EA05021CBF63EA0503B8
:1005900062464FF00004AAE7830730B547D0541EE7
:1005A000002A3ED0CAB2034601E0013C39D303F829
:1005B000012B9D07F9D1032C2CD9CDB205EB0525D4
:1005C0000F2C05EB054535D9A4F1100222F00F0CD4
:1005D00003F1100EE6444FEA121C1A46C2E9005518
:1005E000C2E9025510327245F8D10CF1010214F043
:1005F0000C0F03EB021204F00F0C13D0ACF1040348
:1006000023F003030433134442F8045B9342FBD109
:100610000CF003042CB1C9B21C4403F8011BA34223
:10062000FBD130BD64461346002CF4D1F9E70346F4
:100630001446C0E71A46A446E0E700BF70B5A1FB28
:10064000025454B9294600F037F8064618B12A4634
:100650002146FFF7A1FF304670BD0C220260002644
:10066000F9E700BF014B1868704700BF0000002089
:1006700070B5104E336805460C46B3B12146284686
:1006800000F03AFE431C0CD0C41C24F00304A0422A
:1006900005D0211A284600F02FFE013001D0204657
:1006A00070BD4FF0FF34204670BD194600F024FEA7
:1006B0003060E3E7440D00202DE9F843CD1C25F020
:1006C000030508350C2D38BF0C25002D064618DB18
:1006D000A94216D8DFF8DC8000F01CFAD8F8042014
:1006E000A2B1144603E0636822467BB11C4623682E
:1006F0005B1BF8D40B2B1FD89442636854D0536013
:100700000CE00C2333600020BDE8F8832946304616
:10071000FFF7AEFF431C044619D00560304600F0D9
:10072000FBF904F10B00231D20F00700C21A1CBFC7
:100730001B1AA350BDE8F88361199442256014BFC9
:100740005160C8F80410635163684B60E6E7D8F85D
:1007500004701FB33C467F68002FFBD123683946E5
:10076000304604EB030900F0C7FD814516D123682C
:10077000ED1A29463046FFF77BFF01300ED0236883
:10078000D8F804202B442360536883B1A34203D0DC
:100790001A465B689C42FBD10023B0E70C23336010
:1007A000304600F0B9F9AEE7C8F80430B6E7C8F84B
:1007B0000470B3E7440D002088420ED98B188342A1
:1007C0000BD900EB020C002A6ED0624613F801CD63
:1007D00002F801CD9942F9D170470F2A0FD803468C
:1007E00002F1FF3C002A5FD00CF1010C013B8C446C
:1007F00011F8012B03F8012F6145F9D1704740EA48
:1008000001039B0751D1A2F1100370B501F1200C37
:1008100023F00F0501F1100E00F11004AC441B0988
:100820005EF8105C44F8105C5EF80C5C44F80C5CFC
:100830005EF8085C44F8085C5EF8045C44F8045C0C
:100840000EF1100EE64504F11004E9D1013312F067
:100850000C0F01EB031102F00F0400EB031328D07F
:10086000043C24F003064FEA940C1E441C1F8E46E1
:100870005EF8045B44F8045FB442F9D10CF1010462
:1008800002F0030203EB840301EB840102F1FF3C5D
:100890004AB10CF1010C013B8C4411F8012B03F817
:1008A000012F6145F9D170BD704702F1FF3C03464D
:1008B0009AE72246EAE700BF38B52F4B1B6805468A
:1008C0000C4613B11A6A002A4BD0B4F90C30180741
:1008D0001CD5226922B313F0010107D06169002001
:1008E0004942A060A1613AB1002038BD980758BFC5
:1008F0006169A160002AF7D1190658BF1046F4D5E6
:1009000043F04003A3814FF0FF3038BDD9062CD50A
:100910005A0712D4226943F00803A381002ADAD1CE
:1009200003F42071B1F5007FD5D02146284600F0B0
:10093000F5F8B4F90C302269CDE7616B51B104F1DF
:100940004402914204D0284601F0DAF9B4F90C309F
:100950000022626322690021C4E9002123F02403FC
:10096000D9E7184601F0BEF8AFE7092243F040038B
:100970002A60A381C7E700BF00000020844641EA47
:10098000000313F003036DD1403A41D351F8043B07
:1009900040F8043B51F8043B40F8043B51F8043B59
:1009A00040F8043B51F8043B40F8043B51F8043B49
:1009B00040F8043B51F8043B40F8043B51F8043B39
:1009C00040F8043B51F8043B40F8043B51F8043B29
:1009D00040F8043B51F8043B40F8043B51F8043B19
:1009E00040F8043B51F8043B40F8043B51F8043B09
:1009F00040F8043B51F8043B40F8043B51F8043BF9
:100A000040F8043B51F8043B40F8043B403ABDD267
:100A1000303211D351F8043B40F8043B51F8043B09
:100A200040F8043B51F8043B40F8043B51F8043BC8
:100A300040F8043B103AEDD20C3205D351F8043B98
:100A400040F8043B043AF9D2043208D0D2071CBF64
:100A500011F8013B00F8013B01D30B88038060468D
:100A6000704700BF082A13D38B078DD010F0030303
:100A70008AD0C3F10403D21ADB071CBF11F8013B73
:100A800000F8013B80D331F8023B20F8023B7BE7C2
:100A9000043AD9D3013A11F8013B00F8013BF9D2ED
:100AA0000B7803704B7843708B7883706046704787
:100AB000024B01461868FFF7FFBD00BF0000002091
:100AC000024B0146186801F01BB900BF000000206E
:100AD0000CB400B583B004AB53F8042B019300F0C1
:100AE00077FA03B05DF804EB02B070470EB410B5AE
:100AF00083B005AB064C53F8042B019301462068E4
:100B000000F066FA03B0BDE8104003B0704700BFC4
:100B100000000020704700BF704700BF70B5B1F9FA
:100B20000C300C46990796B007D504F14703012213
:100B3000C4E90432236016B070BDB4F90E10002968
:100B4000054629DB6A4601F0C7FB002822DB4FF48B
:100B500080612846019EFFF7AFFD88B3A38920601E
:100B600043F0800306F47046A381B6F5005F4FF4AE
:100B70008063C4E90403DED1B4F90E10284600F006
:100B8000CFF90028D7D0A38923F0030343F0010352
:100B9000A381D0E7B4F90C3013F0800F14BF4026C6
:100BA0004FF4806631462846FFF786FD40B1A389A1
:100BB000206043F08003C4E90406A38116B070BD31
:100BC000B4F90C309A05B6D423F0030304F14702BC
:100BD00043F002030121C4E90421A3812260AAE7B2
:100BE00070B50C46B1F90E10002996B015461E4698
:100BF0000FDB6A4601F070FB00280ADB019B03F45F
:100C00007043A3F50053B3FA83F34FF480625B099A
:100C100008E0A28912F0800F4FF0000314BF4022B9
:100C20004FF48062002033602A6016B070BD00BFB0
:100C300000000000000000000000000000000000B4
:100C400002780B78012A28BF9A4240F0D8806DE9DB
:100C5000044540EA0104CDE902676FF0000C4FEA59
:100C600044721AB380EA010414F0070F6BD100F04C
:100C7000070420F0070004F0030521F007014FEA04
:100C8000C505F0E8042314F0040FF1E804670CFA3A
:100C900005F462EA040266EA04060BD063EA040380
:100CA000624667EA0407664604E000BFF0E80423F2
:100CB000F1E8046782FA4CF582EA0604A4FA8CF49F
:100CC0006CBB83FA4CF583EA0705A5FA8CF595B958
:100CD00050E9022351E9026782FA4CF582EA0604E0
:100CE000A4FA8CF483FA4CF583EA0705A5FA8CF58F
:100CF0002543DBD09CB92DBAB5FA85F424F007045E
:100D000027FA04F1DDE9026723FA04F303F0FF0098
:100D100001F0FF01FDE80445A0EB0100704724BA93
:100D2000B4FA84F424F0070426FA04F1DDE902673A
:100D300022FA04F202F0FF0001F0FF01FDE8044591
:100D4000A0EB0100704714F0030F3CD110F0030436
:100D500028D150F8082B51F8083B82FA4CF582EA6A
:100D60000305A5FA8CF55DB950F8042C51F8043C44
:100D700082FA4CF582EA0305A5FA8CF5002DE8D03D
:100D80002DBAB5FA85F424F0070423FA04F122FA07
:100D900004F202F0FF0001F0FF01FDE80445A0EBC2
:100DA000010070474FEAC40420F0030050F8082BFC
:100DB00021F0030151F8083B0CFA04F462EA040242
:100DC00063EA0403C9E710F003041DD0A1EB04019A
:100DD00020F00300E40750F8042B06D012D28B78E1
:100DE0005FFAA2F4E41A06D12BB1CB785FFAB2F421
:100DF000E41A00D133B920465DF8104B7047A2EBDE
:100E00000300704701F1040150F8042BCC0721F0D6
:100E1000030151F8043B48D824D222F07F4482FADF
:100E20004CF594EA1325A5FA8CF50AD165B951F869
:100E3000043B84EA0204B4EB036F0ED150F8042B98
:100E4000EBE74FEA132355E035F07F454DD10878A5
:100E5000FDE80445C0F1000070474FEA126203F05C
:100E6000FF0347E002EA1C4482FA4CF594EA13457A
:100E7000A5FA8CF50AD165B951F8043B84EA02045D
:100E8000B4EB034F0CD150F8042BEBE74FEA1343BC
:100E900030E015EA1C4528D10B884FEA124229E0C0
:100EA0004FEA124203EA1C4324E002F0FF0482FAF4
:100EB0004CF594EA1365A5FA8CF50AD165B951F899
:100EC000043B84EA0204B4EB032F09D150F8042B4D
:100ED000EBE74FEA13630DE015F0FF0F05D10B6848
:100EE0004FEA122223F07F4304E04FF00000FDE8B8
:100EF0000445704712BA1BBA82FA4CF482EA030422
:100F0000A4FA8CF5B5FA85F402FA04F203FA04F3B4
:100F10004FEA1260FDE80445A0EB1360704700BF84
:100F200038B5074D0022044608462A6009F0F4F857
:100F3000431C00D038BD2B68002BFBD0236038BD8C
:100F4000880E00209368013B002B936011DA10B4E7
:100F50009469A34209DB0A2907D01368581C106062
:100F6000197008465DF8044B70475DF8044B00F0BB
:100F700073B91368581C106019700846704700BF99
:100F80009BB1F8B5134406460F46541E5D1E01E0A2
:100F9000AC4208D014F8011F3A463046FFF7D2FFA2
:100FA000431CF5D1F8BD0020F8BD0020704700BFFC
:100FB000936810B514461BB918460023636010BD32
:100FC00000F0F6F90023A3600023636010BD00BFAA
:100FD0002DE9F04FA1B08B4691461C46049018B104
:100FE000036A002B00F01C81BBF80C30180740F19D
:100FF0009580DBF81030002B00F090800023CA466B
:101000000D9343F22003ADF839309AF80030864E44
:1010100007940127002B79D0D14604E019F8013F4D
:10102000002B00F08580252BF8D1B9EB0A0840F0A1
:10103000828099F80030002B68D000234FF0FF32F7
:10104000CDE9092309F1010908930B938DF8633069
:101050001E9305E0089A07FA03F31A430892A14683
:101060004C46052214F8011B304600F0C9FEA2468A
:10107000831B0028EED1089BD90644BF20228DF89F
:10108000632099F800101A0744BF2B228DF86320C3
:101090002A2966D1079A1168043200290792C0F202
:1010A0009A800B9199F801102E2970D05F4C032281
:1010B000204600F0A5FE38B1089B001B402282406C
:1010C00013430AF1010A08931AF8011B58488DF8D6
:1010D0003810062200F094FE002800F08280554B64
:1010E000002B69D007AA0092534B04985A4608A9CE
:1010F000AFF300800390039B013307D00D9B039A4D
:1011000013440D939AF80030002B85D1BBF80C30B6
:101110005B060AD40D9821B0BDE8F08F04985946BB
:10112000FFF7CAFB00283FF469AF4FF0FF30F2E74A
:10113000B9EB0A08EAD00AF1FF35CDF81490A946B8
:10114000049D01E0A0453ED94C465A4619F8011FBE
:101150002846FFF7F7FE02340130A4EB0A04F1D170
:10116000D4E7A1F13002092A88BFCA469CD80B9B5C
:1011700000E00134217803EB830302EB4303A1F188
:101180003002092AF5D92E290B93A2468ED19AF85E
:1011900001102A292FD1079B9AF802101A68099288
:1011A0000433002A0AF102000793B8BF4FF0FF335F
:1011B0008246B8BF099379E7079B073323F00703FB
:1011C000083307939AE70D99DDF81490414499F894
:1011D00000300D912FE7494243F002030B91089331
:1011E00060E707AA0092144B04985A4608A900F039
:1011F00031FF03907FE7A1F130020023092A099310
:101200000AF1010A3FF652AF1AF8011F03EB8303FC
:1012100002EB4303A1F13002092AF5D9099345E70E
:1012200000F060FCE0E600BF00E0010808E0010813
:101230000CE0010800000000810F000810B4054C0C
:101240008446134620685DF8044B0A466146FFF762
:10125000BFBE00BF00000020F8B50D46144606468C
:1012600010B1036A002B37D0A389A269A2601A07C4
:1012700019D52369BBB122686169D31AEDB29942CD
:101280002F4620DD0133A1680139A160511C216086
:10129000157062699A420DD0A389DB0701D50A2D2A
:1012A00008D03846F8BD21463046FFF705FB38B96F
:1012B0002369E0E72146304600F0E0FC0028F0D04A
:1012C0004FF0FF37EDE72146304600F0D7FC00280D
:1012D000F6D122680123D6E700F004FCC4E700BF82
:1012E00010B4044C03460A4620685DF8044B1946C6
:1012F000FFF7B2BF0000002038B5074D00220446BA
:1013000008462A6008F0AEFE431C00D038BD2B68AA
:10131000002BFBD0236038BD880E002010B50C4692
:10132000B1F90E1000F0BCFD002803DB636D03442F
:10133000636510BDA38923F48053A38110BD00BF52
:10134000002070472DE9F0410C46B1F90C101F4602
:10135000CB05054616460BD421F48051A1813B46AE
:10136000B4F90E1032462846BDE8F04100F0E0BF67
:10137000B4F90E100223002200F0C4FFB4F90C10DF
:10138000EAE700BF10B50C46B1F90E1000F0BAFF45
:10139000B4F90C30421C0EBF23F4805343F4805345
:1013A0006065A38110BD00BFB1F90E1000F0C2BB93
:1013B0009368002B00F0F8802DE9F04FB1F90CC0D4
:1013C0001CF0080F83B0904681460C4631D00B6963
:1013D0007BB31CF00207D8F8006038D00027D4F89F
:1013E00028B0216ADFF8C4A23D4655452B463A464F
:1013F00028BF53464846C5B1D847002840F3CA80A5
:10140000D8F808301B1A07442D1AC8F80830002BEA
:1014100000F0B68055452B46D4F828B0216A28BF85
:1014200053463A464846002DE6D1D6E900750836BF
:10143000DBE721464846FFF73FFA002840F0AF803F
:10144000B4F90CC0D8F800601CF00207C6D11CF03B
:10145000010A63D12368A168574618468B46002FBE
:1014600058D01CF4007F00F0B580B9420A4600F263
:10147000E1801CF4906F2FD0216962695D1A02EB44
:10148000420202EBD2726B1C52103B44934292BF59
:1014900093469B461A461CF4806F00F0EA80114682
:1014A0004846FFF709F9002800F0F9802A4621692B
:1014B0000090FFF763FAA289009B22F4906242F049
:1014C0008002A2815819ABEB0505C4F814B0236162
:1014D000A5602060BB463A4651460092FFF76CF982
:1014E000A1682368009AA1EB0B011A443D46A16054
:1014F00022600027D8F808305B1BAA44C8F80830DF
:10150000002B3DD02368A168B4F90CC018468B4667
:10151000002FA6D1D6E900A708369EE73846BB467D
:101520003D460097002D41D0002846D0009A206803
:10153000A168D4E90473AA4228BF2A46B84204D954
:1015400001EB030A524500F38580934275DC216A62
:10155000A76A5A464846B847B0F1000A1ADD009B10
:10156000B3EB0A0300930FD00120D8F80830A3EBA7
:101570000A03D344A5EB0A05C8F80830002BD1D1E3
:10158000002003B0BDE8F08F2146484600F076FB0E
:101590000028EAD0B4F90C3043F04003A3814FF0A7
:1015A000FF3003B0BDE8F08F002070477568334608
:1015B0000836002DFAD0D3F800B02A460A21584642
:1015C00000F01EFC002867D00130A0EB0B03009355
:1015D0001A46ACE722699A4214D36269BA4211D81A
:1015E0006FF00043BB4228BF3B46A56A93FBF2F372
:1015F000216A02FB03F348465246A847051EC9DD8F
:101600007F1B77E7B94228BF39460D4618460A4680
:101610005146FFF7D1F8A1682368491B2B44A1600C
:1016200023600029ECD12146484600F027FB002822
:10163000E6D0AFE7BB463A464EE759460192FFF780
:10164000BBF8019AA3689B1AA36023681344236024
:10165000924684E759465246FFF7AEF82368534452
:1016600023602146484600F009FB00283FF477AF8D
:1016700090E7484600F02AFC034600287FF422AF9A
:101680002169484600F03CFBB4F90C300C22C9F843
:10169000002023F080037FE76A1C009247E70C22BA
:1016A000B4F90C30C9F8002076E700BF00FCFF7FDA
:1016B00038B5C46B0CB1002038BD80210546FEF75B
:1016C000FBFF0246E86330B1031F7C3243F8044F4E
:1016D0009342FBD1EFE74FF0FF3038BD30B51F2903
:1016E00083B0054608D8C36B0C4653B153F82400A9
:1016F00043F8242003B030BD162303604FF0FF30C1
:10170000F8E780210192FEF7D7FF019AE8630346CC
:101710000028F3D0011F00F17C05002041F8040FE0
:10172000A942FBD1E2E700BF1F2938B505461ED804
:10173000C26B0C466AB152F8213053B1012B06D06E
:10174000591C10D0002142F8241020469847002050
:1017500038BD284600F020FE224601462846BDE856
:10176000384000F003BE16230360012038BD162365
:1017700003604FF0FF3038BD1F292AD838B5C36B3E
:101780000C460546A3B153F8242003EB84034AB169
:10179000511C0BD0012A07D0002520461D60904720
:1017A000284638BD012038BD032038BD022038BD91
:1017B0008021FEF781FF0346E86338B1021F002154
:1017C0007C3042F8041F8242FBD1DCE74FF0FF304F
:1017D00038BD4FF0FF30704738B5134B1F281D68D8
:1017E0001DD8EA6B044662B152F820304BB1012B90
:1017F00005D0591C0FD0002142F820109847002036
:1018000038BD284600F0C8FD224601462846BDE8FE
:10181000384000F0ABBD16232B60012038BD1623E5
:101820002B604FF0FF3038BD00000020114B1F2807
:1018300070B51E6808D8F36B04460D464BB153F8DB
:10184000240043F8245070BD162333604FF0FF305E
:1018500070BD80213046FEF72FFF0346F06300285D
:10186000F4D0021F00217C3042F8041F8242FBD1D9
:10187000E5E700BF0000002038B50B4B1D68EC6B9E
:101880000CB1002038BD80212846FEF715FFE86323
:1018900038B1031F00F17C0243F8044F9342FBD19F
:1018A000EFE74FF0FF3038BD0000002038B5174B90
:1018B0001F281D6826D80446E86BA0B150F82430D4
:1018C00000EB84004BB15A1C0BD0012B07D0002534
:1018D000056020469847284638BD012038BD0320C2
:1018E00038BD022038BD80212846FEF7E5FEE863BA
:1018F00040B1031F00F17C01002243F8042F8B420A
:10190000FBD1DBE74FF0FF3038BD00BF0000002007
:1019100000207047024A0349034800F04FBA00BF55
:10192000500000207D1C0008040000200C4B416882
:10193000994210B5044601D000F0A0F9A168094B06
:10194000994202D0204600F099F9E168064B99428D
:1019500004D02046BDE8104000F090B910BD00BF93
:101960004C0D0020B40D00201C0E002000207047FC
:101970002DE9F8432A4C2B49DFF8BC90DFF8BC80F6
:10198000294FC4F83811002504230822294604F100
:101990005C00264EE360C4E90055C4E90455A56027
:1019A0006566A561FEF7F8FD214B636708222946AD
:1019B00004F1C400C4E90849C4E90A87C4E91A5516
:1019C000C4E91E552567C4F8CC50C4F8805026637E
:1019D000FEF7E2FD174BC4F8DC30294604F168033A
:1019E000082204F59670C4F88830C4E92398C4E945
:1019F0002576C4E93455C4E93855C4F8D850C4F83C
:101A00003451C4F8E850FEF7C7FD04F1D003C4E92F
:101A10003D98C4E93F76C4F8F030BDE8F88300BFD4
:101A20004C0D00201519000885130008A9130008A3
:101A300009000100120002001D13000845130008F0
:101A4000F8B5254BD3F838310646002B3CD0234F50
:101A5000D7E90134013B04D51DE05A1C04F16804A8
:101A600019D0B4F90C50013B002DF6D11C4BE360AA
:101A7000C4E90155C4E9045565662560A5610822DD
:101A8000294604F15C00FEF787FDC4E90D55C4E961
:101A900012552046F8BD3D680DB12F46D8E74FF4EA
:101AA000D6713046FEF708FE044680B10423C0E933
:101AB00000530C302946A0604FF4D0722546FEF743
:101AC0006BFD3C602F46C3E7FFF752FFBFE70C23D7
:101AD00038603360DDE700BF4C0D0020500000206F
:101AE0000100FFFF036A03B17047044B044AD3F8B7
:101AF00038310262002BF7D13AE700BF4C0D0020CD
:101B00002D190008704700BF704700BF024A034903
:101B1000002000F053B900BF500000201119000848
:101B2000024A0349002000F049B900BF50000020DC
:101B30006D19000838B5074D0022044608462A6092
:101B400008F0E2FA431C00D038BD2B68002BFBD014
:101B5000236038BD880E0020B1F90C302DE9F0412A
:101B60001E070C4680463DD44A68002A56DDE56AC9
:101B7000002D34D00022D8F80060C8F8002013F4FB
:101B80008052216A57D101234046A847451C02468E
:101B900066D0B4F90C30E56A216A580705D5636848
:101BA000D21A636B0BB1236CD21A00234046A847AC
:101BB000431C42D00023636023692360A389DF04B0
:101BC00000D56065616BC8F8006041B104F1440361
:101BD000994202D0404600F093F80023636300204E
:101BE000BDE8F0810E69002EF9D09B070D6808BF93
:101BF0004B690E6018BF0023AD1B8B600BE02B46BA
:101C00003246216AA76A4046B847B0F1000CA5EBFE
:101C10000C05664406DD002DF1DCE0E70A6C002AC5
:101C2000A5DCDCE7B4F90C3043F04003A3814FF0AE
:101C3000FF30BDE8F081626DAFE7D8F80010B4F96D
:101C40000C301D29F0D80C4ACA40D507ECD52269C2
:101C5000226000226260DA04B4D50029B1D0B1E775
:101C6000D8F80030002B94D01D2B01D0162BD9D1E1
:101C7000C8F80060B3E700BF010040200B69B3B1B2
:101C800010B5044682B008B1036A5BB1B1F90C30FB
:101C900013B9002002B010BD204602B0BDE81040CC
:101CA000FFF75ABF0191FFF71DFF0199EEE70020F2
:101CB000704700BFB8B138B50D4A036915680446CE
:101CC0002BB10DB12B6A53B1B4F90C300BB9002014
:101CD00038BD21462846BDE83840FFF73DBF2846BD
:101CE000FFF700FFF0E7034A0349044800F066B835
:101CF00000000020500000207D1C0008040000208F
:101D0000002950D038B551F8043C0C1F002BB8BF47
:101D1000E4180546FEF7FEFE274A13682BB1A342DE
:101D20000CD92168601883422CD063602846146067
:101D3000BDE83840FEF7F0BEA3420FD81A465B68F4
:101D4000002BF9D111685018844217D02CD363604E
:101D500054602846BDE83840FEF7DEBE11685018D2
:101D6000A04214D020D8216860188342EFD11868AF
:101D70005B680844C4E900035460EAE723680B4445
:101D80001360E6E718685B6808442060CDE72068C8
:101D90000144501883421160DBD1D3E900040144AF
:101DA000C2E90014D5E770470C232B602846BDE834
:101DB0003840FEF7B1BE00BF480D00202DE9F843C2
:101DC0000746884616464FF00009D6E90154013D02
:101DD00010D4A389012B08D9B4F90E300133214660
:101DE000384602D0C04749EA0009013D6B1C04F1A6
:101DF0006804EED13668002EE7D14846BDE8F88386
:101E000001F0FF01102A2BDB10F0070F08D010F8AB
:101E1000013B013A8B422DD010F0070F42B3F6D1AF
:101E2000F0B441EA012141EA014122F007047FF0C8
:101E300000070023F0E80256083C85EA010586EA1F
:101E4000010685FA47F5A3FA87F586FA47F6A5FA5B
:101E500087F68EB9EED1F0BC01F0FF0102F0070267
:101E600032B110F8013B013A83EA010313B1F8D112
:101E70000020704701387047002D06BF35460338F3
:101E8000073815F0010F07D1013015F4807F02BF2C
:101E9000013015F4C03F0130F0BC0138704700BF7D
:101EA00038B50C46084D8446114620461A46002394
:101EB0002B60644608F00AF9431C00D038BD2B683B
:101EC000002BFBD0236038BD880E00202DE9F041A7
:101ED000144641B30AB306460D4600F03FFA844269
:101EE000074602D8B4EB500F13D821463046FEF710
:101EF000E3FB804650B1BC422246294628BF3A4601
:101F0000FEF73CFD29463046FFF7FAFE4046BDE8A5
:101F1000F081A8464046BDE8F081A046FFF7F0FEFC
:101F20004046BDE8F081BDE8F0411146FEF7C4BB74
:101F30002DE9F84F92461F460A698B68DDF8289014
:101F40009A42B8BF1A46CAF8002091F843300C46AE
:101F5000064613B10132CAF80020226891065FD507
:101F6000DAF800300233CAF80030226812F0060FA7
:101F700011461DD1E1689942D8BF114618DD4FF0D6
:101F8000000804F1190B05E0E568DAF80030ED1AF5
:101F900045450CDD01235A4639463046C8470130D5
:101FA00008F10108F0D14FF0FF30BDE8F88F21684B
:101FB00094F84330003B18BF01238A060AD5E11884
:101FC0005A1C302081F84300224494F8451082F8CE
:101FD0004310023304F1430239463046C84701300A
:101FE000E1D02368DAF80050216903F00603042BDE
:101FF000D4E902201BD08A4220DD4FF00008521A9B
:1020000090441A34002501E0454517DA01232246A1
:1020100039463046C847013005F10105F4D1C2E721
:1020200012F0060F0DD0003B18BF0123D2E7401B72
:102030008A4220EAE078E2DC0028E2DC0020BDE809
:10204000F88FE168DAF800309942D8BF114696DC83
:10205000AEE700BF2DE9F047174684B00A7E0C9D1D
:102060000C460646984601F1430C002A35D0A2F1F1
:102070005803D9B2202969D8202B67D8DFE813F09C
:10208000E6006600660066006600660066006600A0
:10209000660066006600AC007000660066006600C0
:1020A000660070006600660066006600210083001E
:1020B000C60066006600B600660083006600660023
:1020C000EC002B6822686169181D286010061B68E7
:1020D00002D4520600F1E08019600023E14623613A
:1020E000CDF800803B4603AA21463046FFF720FF8B
:1020F000013020D023694A4639463046C047013076
:1021000019D02368E068DDF80C909B0718D5484586
:1021100016DD002504F1190A04E0E068A0EB0903CC
:10212000AB420DDD0123524639463046C0470130EF
:1021300005F10105F1D14FF0FF3004B0BDE8F087A3
:102140004845B8BF484604B0BDE8F08784F842204F
:10215000012004F142090023206184F84330BFE7E5
:102160002A682368111D1806296002D4590600F157
:1021700095801068014600286268C0F29380544838
:102180004FF00A0E15E020682B6810F0800F53F80E
:10219000041B02D1400648BF89B26F2A4C482B600D
:1021A00014BF4FF00A0E4FF0080E0023626884F847
:1021B0004330002AA26051DB236823F0040323602C
:1021C00000294BD1002A7BD1E146BEF1080F56D041
:1021D000ACEB0903236183E72B681A6804332B6097
:1021E00004F1420984F842200120B4E72B686268B8
:1021F000191D2960D3F8009000214846FFF700FE22
:10220000002863D0A0EB09006060A4E7236843F0D6
:102210002003236078222F4884F845202A6813F091
:10222000800F52F8041B03D113F0400F18BF89B27E
:102230002A60DA0744BF43F02003236019B92368FA
:1022400023F0200323604FF0100EAEE7582384F8EC
:1022500045301F482368E1E72368DBE77546E14620
:10226000B1FBF5F305FB131A0A46AA4210F80A104F
:1022700009F8011D1946F3D2BEF1080FA8D1236851
:10228000DD07A5D5626823699A42A1DC302309F8ED
:10229000013C09F1FF399BE719801EE7B2F90010F4
:1022A000084668E72D20002AA26084F8430002DB7C
:1022B00023F0040323600A2505484942AE46CEE7D1
:1022C000037884F8423004F142097EE7606842E70F
:1022D00014E0010828E0010870B50C46084D0346DB
:1022E0000026204611461C462E6007F010FF431CB6
:1022F00000D070BD2B68002BFBD0236070BD00BFE9
:10230000880E002038B50C46084D844611462046FC
:102310001A4600232B60644607F000FF431C00D0E0
:1023200038BD2B68002BFBD0236038BD880E002001
:1023300038B50C46084D8446114620461A460023FF
:102340002B60644607F0D2FE431C00D038BD2B68DA
:10235000002BFBD0236038BD880E002051F8043CD0
:10236000181F002BBCBF0B58C018704770B50C4627
:10237000084D03460026204611461C462E6007F0F5
:1023800097FE431C00D070BD2B68002BFBD0236050
:1023900070BD00BF880E002007F088BE08B52DED87
:1023A000048BF0EE408AB0EE609A00F0EBFAF0EEAB
:1023B000490AB0EE408AB0EE680A00F0E1FAF0EEA9
:1023C000400AB0EE480ABDEC048BBDE8084000F0BE
:1023D00071BA00BF10EE101AC1F3C7520029A2F162
:1023E0007F0CACBF01204FF0FF30BCF11E0F0FDCA3
:1023F000BCF1000F1DDBC1F31603BCF1160F43F453
:1024000000030ADD963A03FA02F202FB00F070477D
:10241000FDEEC07A17EE900A70474FF4800242FA40
:102420000CF21A44CCF1170C22FA0CF202FB00F069
:102430007047BCF1FF3F18BF0020704708B52DED75
:10244000048BF0EE408AB0EE609A00F099FAF0EE5C
:10245000490AB0EE408AB0EE680A00F093FAF0EE56
:10246000400AB0EE480ABDEC048BBDE8084000F01D
:10247000F9B900BF08B52DED028BB0EE408A00F02F
:102480005DF8B4EE488AF1EE10FAF0EE408A0AD612
:10249000B0EE480A00F0B2FFF7EE007AB4EEE70AB9
:1024A000F1EE10FA04DCB0EE680ABDEC028B08BD58
:1024B000FEF7D8F8BDEC028B034621221A600248D1
:1024C000BDE8084000F0F8B9F0CA010810EE103A73
:1024D000184923F000428A421AD9B2F1FF4F02D3C1
:1024E00030EE400A704700B583B0684600F056FEF3
:1024F00000F003000128DDED010A9DED000A10D077
:10250000022809D090B900F095FB03B05DF804FBF8
:10251000DFED090A00F08EBB00F08CFBB1EE400A43
:10252000F3E700F0F3FDB1EE400AEEE7012000F022
:10253000EDFDEAE7D80F493F0000000008B510EEB6
:10254000102A22F00043B3F17E5F2DED028B12D0F2
:102550000AD8B3F17C5F19D2B3F10C5F6AD8BDEC35
:10256000028B9FED760A08BD70EE407A87EEA70ACF
:10257000BDEC028B08BDBDEC028B9FED710ADFED57
:10258000717A002AC8BFB0EE670A08BD002AC0F2FF
:102590008E80F7EE008A38EEC00AF6EE007A20EE62
:1025A000278AB0EE480A01F04FFADFED677A9FED17
:1025B000677ADFED676ADFED675A9FED676AA8EE1D
:1025C000277ADFED667AE7EE086AE8EE067AE6EE4D
:1025D000885A9FED636A9FED637ADFED636AA5EE2B
:1025E000886AA7EE887ADFED617AE6EE087A10EE67
:1025F000103AE7EE086A6FF30B03B0EE677A07EE66
:10260000903AF0EE485AE7EEE75AE6EE888A30EE66
:10261000276A27EE087AC5EE866A87EE286ABDEC3F
:10262000028BB0EE667AA0EE067A37EE870A30EEBD
:10263000000A08BD20EE007ADFED437A9FED436A81
:10264000DFED436A9FED445ADFED425AA7EE276A59
:10265000BDEC028BE6EE076ADFED407A9FED416A42
:10266000E7EE057AE6EE875AA7EE876A9FED3C5AB9
:10267000DFED3D7ADFED3D6AA5EE875AE6EE077A9B
:10268000E5EE076AF7EE005AE7EE875A26EE877AFC
:102690009FED376ADFED377AC7EE256AB0EE467AEE
:1026A000A0EE667A30EE470A37EEC00A08BDB7EEF4
:1026B000007A30EE070AF6EE007A60EE277ADFED58
:1026C000226A9FED226ADFED224ADFED235A9FED59
:1026D000215A9FED268AA7EEA66ADFED206AE6EE74
:1026E000274AE7EEA56ADFED1F5A9FED1D6AA4EEAB
:1026F000A75AE6EEA75ADFED1C6AA5EE276AE5EEBB
:10270000A76AA6EE278AA6EEA77A28EE278AF0EE19
:10271000478AB0EE670A01F097F988EE286A9FEDC4
:10272000167ADFED167AA0EE067AF0EE006A37EE42
:10273000007AE7EE667AB0EE670A19E7DB0FC93F69
:10274000DB0F49400000000008EF1138047F4F3ACA
:10275000461124BDA80A4E3E2EC69D3D613330BFB2
:1027600090B0A6BE2D57014039D119C0ABAA2A3E60
:102770006821A233DA0FC93F6821A2B3DA0F4940BA
:1027800008B52DED028BB0EE408A01F05DF9B4EE94
:10279000488AF1EE10FA06D6DFED098AB4EEE88A2F
:1027A000F1EE10FA02D4BDEC028B08BDFDF75AFF22
:1027B00088EEA80ABDEC028B2123036008BD00BF90
:1027C0000000000053EC102BC3F30A50A0F2FF31BD
:1027D000132910B59C46964619DC002911DB2048C8
:1027E000084100EA0304144316D04FF400230B41C0
:1027F000634423EA000C002163460A4643EC102B95
:1028000010BD013103F0004C24D00021F4E733293E
:1028100005DDB1F5806F16D043EC102B10BDA0F292
:1028200013404FF0FF3424FA00F01042F4D001239B
:10283000C1F1330103FA01F111EB0E0128BF9C44F1
:1028400021EA0001D8E71046194601F095FF41EC56
:10285000100B10BD4CF07F5C4CF4401C0021CBE70A
:10286000FFFF0F0008B52DED048BF0EE408AB0EEAF
:10287000609A00F04DF9B0EE408A00F097FA20B16E
:10288000B0EE480ABDEC048B08BDB0EE680A00F05B
:102890008DFA0028F4D0B0EE490A00F087FA00283B
:1028A000EED0FDF7DFFE22239FED018A0360E7E70C
:1028B0000000807F00F0B4BA9FED010A704700BFAE
:1028C0000000C07F08B52DED048BB0EE608AB0EE3D
:1028D000409A01F0BDF8B4EE488AF1EE10FAF0EE3D
:1028E000408A0BD6B5EE409AF1EE10FA17D1B5EE4C
:1028F000408AF1EE10FA06D1F7EE008AB0EE680ACF
:10290000BDEC048B08BDB0EE480A00F04FFA002879
:10291000F4D0B5EEC08AF1EE10FAEFD525E000F064
:1029200045FA88B1F5EE408AF1EE10FAE6D1B0EE44
:10293000490A00F03BFA0028E0D0B0EE480A00F067
:1029400035FA0028DAD010E0B0EE490A00F02EFA8D
:102950000028E7D0B0EE480A00F028FA0028E1D0BD
:10296000F4EE688AF1EE10FA04D6FDF77BFE22231E
:102970000360C3E7FDF776FE21230360BEE700BFD7
:10298000704700BFB0EE600A704700BF0000000053
:1029900051EC100BC1F30A532DE9F041A3F2FF35BE
:1029A000132D0C46064632DC002D20DB384B43FA53
:1029B00005F801EA080303430F462DD032A3D3E9FB
:1029C000002301F0D9FE0022002302F01BFB40B1DE
:1029D000002C03DA4FF480132B411F4427EA08042C
:1029E00000262346324643EC102BBDE8F08126A397
:1029F000D3E9002301F0C0FE0022002302F002FB15
:102A00000028EED0002C2ADB00263446E9E7332DDF
:102A100006DDB5F5806F1BD041EC100BBDE8F081F1
:102A2000A3F213434FF0FF37DF400742F4D016A361
:102A3000D3E9002301F0A0FE0022002302F0E2FA15
:102A40000028CED0002C334610DB23EA0706C8E767
:102A500002460B4601F090FE41EC100BDEE724F03D
:102A6000004426430DD14FF00044BAE7142D06D0A0
:102A7000C5F134050122AA401344B342E5D2013422
:102A8000E3E7044C0026ACE79C7500883CE4377E05
:102A9000FFFF0F000000F0BF08B52DED028BB0EE78
:102AA000408A01F089FBF0EE408AB0EE480A00F05F
:102AB0007DF968B1DFED127AB4EEE78AF1EE10FA33
:102AC0000BDCDFED107AB4EEE78AF1EE10FA0FD4EA
:102AD000B0EE680ABDEC028B08BDDFED0B8AFDF796
:102AE000C1FDB0EE680ABDEC028B2223036008BD75
:102AF000FDF7B8FD2223DFED058A0360E8E700BF9C
:102B00001772B142B5F1CFC20000807F0000000013
:102B100010EE103A23F0004210EE903A23F00043FA
:102B20009A4202DB194613460A46991AB1F1706FB0
:102B300000EE103A06EE902A3FDCB3F1B14F10B52B
:102B40002EDC0024B2F11A5F0ADA42B3B2F5000FAC
:102B500060DADFED357A66EEA76A20EE270A7E3C62
:102B600030EE666AF4EEC66AF1EE10FA28D56FF31D
:102B70000B0307EE903A30EE277A30EE670A27EE25
:102B8000000AA6EEA60AA7EEA70A00F05DFF34B180
:102B9000E40504F17E5407EE904A20EE270A10BDAA
:102BA000B3F1FF4F29DA03F15E4302F15E4200EE1A
:102BB000103A06EE902A4424C4E730EE260A704705
:102BC0001A4903F500030B4007EE903AB0EE007A85
:102BD000B0EE675A90EE075A02EA010307EE103A88
:102BE00026EE850A76EEC75AA5EEA70AA6EE060AD5
:102BF000A7EE270A00F028FFC9E714BF30EE260A27
:102C00009FED0B0ADFED0A7AB2F1FF4F08BFB0EE7D
:102C1000670A10BD03F1085302F1085200EE103AA2
:102C200006EE902A443C9BE70000807E00F0FFFF08
:102C30000000807F10EE103A23F00043B3F1485FAC
:102C40002CD2FDEEC07A17EE903A002B60D060EEE9
:102C5000007A9FED317A9FED315ADFED315A9FEDC9
:102C6000316ADFED316AA7EE875A9FED307AE7EEE1
:102C7000855AA7EEA56AA7EE867AE7EE876A67EE21
:102C8000A66A60EEC00AB6EE007AE7EEA60AB7EED4
:102C9000000AD7EE870A30EE600A704760EE007ACD
:102CA0009FED1D7A9FED1D5ADFED1D5A9FED1D6AA8
:102CB000DFED1D6A1E4AA7EE875A93429FED1B7AED
:102CC000E5EE275AA5EEA76AA6EE277AE7EE276A71
:102CD00066EEA76AD5D9174A934214D803F17F4309
:102CE00007EE103AB7EE006A36EE476A60EEC00AA9
:102CF000F6EE005A97EEA57AE7EEA60A37EE607A6E
:102D000036EE470A7047B6EE076AB5EE027AEDE78F
:102D1000B7EE000A704700BF4ED747ADF6740F31CB
:102D20007CF293B4010DD037ABAA2A3D610BB6BA41
:102D30009999993E0000483F10EE103A194923F046
:102D400000428A421BD9B2F1FF4F02D330EE400A53
:102D5000704700B583B0684600F020FA00F0030029
:102D60000128DDED010A9DED000A13D002280BD0E9
:102D700098B9012000F0CAF903B05DF804FBDFED5B
:102D80000A0A002000F0C2B9012000F0BFF9B1EE3C
:102D9000400AF1E7FFF74EFFEEE7FFF74BFFB1EE1A
:102DA000400AE9E7D80F493F0000000010EE103A52
:102DB00023F00040B0F1FF4FACBF0020012070476E
:102DC00008B52DED028BB0EE408A01F029FBB4EE80
:102DD000488AF1EE10FA0FD6B5EEC08AF1EE10FA7D
:102DE0000AD8B5EE408AF1EE10FA08D1FDF73AFCA8
:102DF00022239FED090A0360BDEC028B08BDFDF79D
:102E000031FCBDEC028B034621221A600348BDE869
:102E10000840FFF751BD00BF000080FFF0CA010865
:102E200010B582B0CDED010A019B23F00042B2F152
:102E3000FF4FF0EE407A30D810EE100A20F000413B
:102E4000B1F1FF4F29D8B3F17E5F42D09C1704F057
:102E5000020444EAD07431B37AB3B2F1FF4F40D0E8
:102E6000B1F1FF4F29D0891AB1F1F45F4FEAE15275
:102E700034DA002B42DA3C3240DA9FED340A012C7E
:102E80004ED0022C43D064B19FED317ADFED317A20
:102E900030EE070A30EE670A03E09DED017A37EE67
:102EA000270A02B010BD022C10D09FED2B7A032C04
:102EB00008BFB0EE470A02B010BD9FED280ADFED53
:102EC000287A0028A8BFB0EE670AEAE79FED210A3A
:102ED000E7E702B0BDE8104000F048B89FED200AD7
:102EE000CDE7B1F1FF4F04F1FF3420D0022C26D8FA
:102EF0001C4B03EB840393ED030AD2E79DED017AAB
:102F000087EE870A00F07AFA00F030F8B7E79FED15
:102F1000107ADFED107A30EE070A37EEC00AC0E70C
:102F200010EE103A03F1004300EE103AB9E7022C1C
:102F300008D80C4B03EB840393ED000AB1E79FED37
:102F4000030AAEE79FED080AABE700BF00000000F0
:102F50002EBDBB33DB0F4940DB0F49C0DB0FC9BFC0
:102F6000DB0FC93FA0C60108DB0F493F38B510EEA3
:102F7000105A25F00044B4F1A14FF0EE407A0DD381
:102F8000B4F1FF4F58D8DFED4F7A9FED4F7A002D07
:102F9000CCBFB0EE470AB0EE670A38BD4B4B9C423F
:102FA00059D8B4F1445F4AD34FF0FF3227EEA76AF5
:102FB0009FED475A9FED477ADFED475ADFED474ACD
:102FC00066EE066A531CA6EE857AE6EEA54A9FEDEC
:102FD000445ADFED445AA7EE265AE4EEA65A9FED76
:102FE000427ADFED424AA5EE267AE5EEA64A9FED4B
:102FF000405ADFED405AA7EE265A9FED3F7AA4EEE5
:10300000A67AE5EE265A27EE267AA5EE867A27EEF0
:10301000877A35D0394B03EB820393ED046AD3ED05
:10302000006A37EE467A002D37EE677A36EEC70A29
:10303000B3DAB1EE400A38BD30EE000A38BD9FED7C
:10304000307A30EE077AF7EE006AB4EEE67AF1EE07
:1030500010FAA9DD38BD00F0D1F92A4B9C4212D8F4
:10306000A3F5D0039C4223D8F0EE007ABFEE007A9D
:10307000A0EE277A002230EE270AC7EE007A95E705
:1030800037EEC70A38BD204B9C420BD8F7EE087AC2
:10309000B7EE007AA0EE277A022230EE670AC0EE81
:1030A000077A83E7BFEE007AC7EE007A03227DE756
:1030B000F7EE007A30EE677A30EE270A0122C7EE8B
:1030C000007A73E7DB0FC9BFDB0FC93FFFFFDF3EAD
:1030D000D769853C59DA4B3D21A215BD6BF16EBD18
:1030E000356B883D95879DBD6E2EBA3D388EE3BD0C
:1030F0002549123EABAAAA3ECDCC4CBEB8C60108AB
:10310000CAF24971FFFF973FFFFF1B4010EE103AD4
:1031100023F00043B3F1485F04D2FDEEC07A17EE0E
:10312000903A5BB360EE007A9FED157ADFED155AA9
:103130009FED156ADFED156AE7EE875A9FED147A69
:10314000A5EEA76A20EE275AE6EE276AA6EEA77A32
:1031500030B9DFED106AE7EE876AA6EE850A7047A0
:1031600027EE457AF6EE006AA0EEA67ADFED0A6A4F
:10317000D7EE270AE5EE260A30EE600A704700BF58
:10318000D3C92E2F342FD7B21BEF3836010D50B9CB
:103190008988083CABAA2ABEABAA2A3E70B510EEBD
:1031A000103A884A23F00044944286B0054671D90B
:1031B000854A94421E4624D823F00042002BDFEDBE
:1031C000837A834922F00F02B0EE407A40F3E08028
:1031D0008A4270EE677A09BF9FED7E7ADFED7E6AE4
:1031E000DFED7E6A77EEC77A37EEE67A77EEC77A5A
:1031F00080ED007A77EEE67AC0ED017A012006B024
:1032000070BD774A944252D9B4F1FF4F48D2E215CB
:10321000863AA4EBC25307EE903ABDEEE77ADFEDB3
:10322000716AB8EEC77A77EEC77A8DED037A67EEEA
:10323000A67ABDEEE77AB8EEC77A77EEC77A8DED5B
:10324000047A67EEA67AF5EE407AF1EE10FACDED4B
:10325000057A40F09880B5EE407AF1EE10FA0CBF96
:1032600001230223604901910221009103A829460C
:1032700000F0CCF8002EC2DA95ED007AD5ED017A97
:10328000B1EE477AF1EE677A85ED007AC5ED017A05
:103290004042B4E7002285ED000A42600020AEE71C
:1032A00070EE407AC0ED017AC0ED007AF6E700F0EA
:1032B000A5F89FED4E7A9FED456AF6EE007AE0EEB6
:1032C000077A9FED457AFDEEE77A17EE900AF8EE61
:1032D000E76A1F28A6EEC60A66EE877AB1EE666A2E
:1032E00020DC434A411E26F0004352F8212023F0FF
:1032F000FF03934216D030EE677A30EE470A002E75
:1033000030EE670A85ED007A85ED010ABFF677AFEA
:10331000B1EE477AB1EE400A85ED007A85ED010AFB
:1033200040426CE730EE677AE21517EE103AC3F3CD
:10333000C753C3EBD453082BDFDD9FED267A9FEDF7
:10334000275AF0EE405AE6EE075A70EE657AE6EE3E
:10335000077AD6EE857A35EEE77A17EE103AC3F3A0
:10336000C753D21A192A10DD9FED227A9FED225AF7
:10337000B0EE650AA6EE070A75EEC07AE6EE077AA9
:10338000D6EE857AB7E703236CE7B0EE650AB4E7BB
:103390008A4270EE277A09BF9FED0E7ADFED0E6A42
:1033A000DFED0E6A77EE877A37EEA67A77EEC77A88
:1033B00080ED007A77EEA67AC0ED017A4FF0FF300B
:1033C0001DE700BFD80F493FE3CB1640800FC93F30
:1033D000D00FC93F004435374344353708A3852E05
:1033E000800F49430000804358C7010884F9223FF9
:1033F000D8C6010800A3852E32318D2410EE103A74
:1034000023F0004300EE103A704700BF2DE9F04F63
:103410002DED048BDBB01C46944603930A46CD4B3E
:1034200068991CF1040F53F82160824604F1FF38BB
:10343000C0F24982BCF1030348BF0CF10403DB1066
:10344000029301334FEAC30EACEB0E030593029BCC
:1034500016EB0800A3EB080316D401309FEDBE7AEB
:10346000699C18441EA9002BA4BF54F8235007EEF2
:10347000905A03F10103ACBFF8EEE77AF0EE477A19
:103480008342E1EC017AEED1002EC0F2B182039BBF
:103490001EA901EB830446AD4FEA83094046F718A5
:1034A0000AEB8301B8F1000FDFEDAB7A09DBA3462D
:1034B0005346F3EC016A3BED017A8B42E6EE877AE4
:1034C000F7D10130B842E5EC017A04F10404E9D106
:1034D0000DF1280B0BEB8603CDE9062E043B9FED87
:1034E000A09ADFED9E8A059804930AEB090446AF83
:1034F0000BEB86090096CDF820C05AAB03EB860390
:10350000002E13ED140A4FEA860515DD7B195A4685
:1035100060EE097AB0EE407AFDEEE77A73ED016A6B
:10352000F8EEE77ABB42A7EEE87A37EEA60ABDEEE0
:10353000C77AA2EC017AEBD1019000F0CBFDF4EE5A
:10354000007AB0EE408A20EE270A00F0CBFFF2EEC0
:10355000007AA0EE678A01980028FDEEC89AF8EE7E
:10356000E97A38EE678A6CDD06F1FF3EC0F10803A8
:103570005BF82E2042FA03FC0CFA03F3D21AC0F1D6
:10358000070119EE903A4BF82E200A416344002AB5
:1035900009EE903A00F3F080B5EE408AF1EE10FAB1
:1035A00040F09D80009B9E420ADD5D44002355F85B
:1035B000041D4D4543EA0103F9D1002B40F0F28090
:1035C000009B013B5BF82330002B40F0E780049B1D
:1035D000012153F8042D0131002AFAD0731C314423
:1035E0009C46029D039A05EB030E0EF1804E699DE9
:1035F00032440EF1FF3E07EB83061EAB05EB8E0E49
:1036000003EB8205DEED017AF8EEE77AB8F1000F00
:103610000EF1040EE5EC017ADFED4F7A09DB2A4664
:103620005346F3EC016A32ED017AA342E6EE877A63
:10363000F7D10CF1010C6145E6EC017AE2DA0E46B5
:103640005BE740F08F80731E5BF82320D211002AC5
:10365000A2DD19EE903A002E03F1010309EE903A33
:1036600040F3D48159464FF0000E51F8043B002B33
:103670006AD0C3F5807341F8043C04E00B68C3F1E1
:10368000FF0341F8043B0EF1010E7645F6DC012301
:103690009E4600280ADD012878D0022806D1711E36
:1036A0005BF8213003F03F0C4BF821C0022A7FF475
:1036B00073AFB7EE000A734630EE488A002B3FF432
:1036C0006BAF0992019000F005FD38EE408A019839
:1036D000099AB5EE408AF1EE10FA3FF463AF9246D4
:1036E000DDE9062EDDF820C00196AEEB0C00B0EE51
:1036F000480A009E009200F0EDFCDFED186AB4EE7F
:10370000E60AF1EE10FADDE90023F0EE407AC0F2AD
:1037100050819FED137A059920EE077A0831BDEEAE
:10372000C77A0591B8EEC77A5C1CE7EE667ABDEE03
:10373000C77AFDEEE77A17EE901A4BF8231017EED2
:10374000103A4BF8243046E00EF1010EB6458CDB02
:103750009E469EE770CA01080000000000008043FA
:103760000000803BF6EE007AB4EEE78AF1EE10FA44
:1037700080F2988000220FE70133002E09EE903A84
:103780003FF770AF002301289E4686D1711E5BF87B
:10379000213003F07F0C4BF821C087E7731C9C4657
:1037A00019461EE733469246DDE905125C1EA1F17B
:1037B00008005BF82410009E059061B903F1804376
:1037C000013B0BEB8303014653F8040D013C083920
:1037D0000028F9D0059105980092B7EE000A00F094
:1037E00079FC002C009AB0EE407AC0F20581601C92
:1037F00046AD5FED256A81000BEB800305EB800091
:1038000073ED017AF8EEE77A5B4567EE877A27EE8B
:10381000267A60ED017AF3D10DF1C8080B1F46A896
:10382000C718C646A44600259146002E73DB844A7D
:10383000DFED847A3846002301E0AB4208DCF2EC8D
:10384000016AB0EC017A01339E42E6EE877AF4DA3F
:103850000CF1FF3CBCF1FF3FEEEC017A05F10105F4
:10386000A7F10407E1D1689B022B4A4656DC002BE6
:103870002EDC0ED1DFED737A414431ED017A414502
:1038800077EE877AF9D15346002B40F0AE80C2ED37
:10389000007A19EE903A03F007005BB0BDEC048BA0
:1038A000BDE8F08F19EE903A002E03F1010309EE06
:1038B000903AC8BF02223FF7D5AEF7EE007A37EE56
:1038C000C88A022268E600234FF0080E0293BBE587
:1038D0009FED5C7A414471ED017A414537EE277ADC
:1038E000F9D1DDED327A534677EEC77A002B75D1E8
:1038F00082ED007A64B133A90123B1EC017A01337E
:103900009C4277EE877AF8DA53460BB1F1EE677A8C
:10391000C2ED017ABDE7DFED4B7A99E7689B032B97
:10392000B7D1002C7ED008EB840595ED007AA0007D
:103930002B46294671ED017AF0EE476A37EE277A79
:10394000414577EEC77A81ED007A77EEA67AC1ED30
:10395000017AEFD1012C65D095ED007A08F10401D0
:1039600073ED017AF0EE476A37EE277A994277EEE7
:10397000C77A83ED007A77EEA67AC3ED017AEFD1AC
:10398000031DDFED307A434408F1080833ED017A76
:10399000984577EE877AF9D15346DDED326A9DED91
:1039A000337A73B9C2ED006A82ED017AC2ED027A10
:1039B0006FE7FDEEC07A1C4617EE901A4BF8231005
:1039C00009E7F1EE666AB1EE477AF1EE677AC2ED89
:1039D000006A82ED017AC2ED027A5AE7B1EE477AC7
:1039E00082ED007A002C86D190E7F1EE677A4EE7FF
:1039F000039B4FEA83096BE5689B022B0EDC002BCF
:103A000013DC7FF446AFDFED0F7A3CE7022A7FF448
:103A1000C3ADF7EE007A37EEC88ABDE5689B032B8D
:103A20007FF437AFDFED077AB6E75346DDED327A44
:103A300013B9002313606BE74FF00043136065E791
:103A40007CCA010800000000B1EEC00A704700BF48
:103A50002DE9F0432DED028B83B0CDED010A8DED04
:103A6000000ADDE9004535F0004610D184F48004F9
:103A7000640014F5000F1BD9DDED007A9DED017A8D
:103A800037EE870A03B0BDEC028BBDE8F08324F06B
:103A90000047B7F1FF4F02D8B6F1FF4F0FD9B4F18D
:103AA0007E5FE9D185F480056D0015F5000FE3D840
:103AB000B7EE000A03B0BDEC028BBDE8F083002C2A
:103AC000B84616DBB6F1FF4F00F0F780B6F17E5F27
:103AD00000F02681B5F1804F00F04681B5F17C5FA2
:103AE00040F0388103B0BDEC028BBDE8F043FFF736
:103AF000ABBFB6F1974F80F0F080B6F17E5F80F0FB
:103B00001981B5F1804F00F02F81B5F17C5F40F055
:103B10002181FFF773FCB7F1FF4FB3D04FF00009DD
:103B2000002F00F0F280B7F17E5F00F0E580E20F39
:103B3000013A59EA020300F02181B6F19A4F40F2AE
:103B40004581924B9F4240F23E82914B9F4200F250
:103B50004782F7EE007A30EE670A9FED8E6ADFED5E
:103B60008E5AF5EE007AA0EE676AF6EE006AE6EE8F
:103B7000406A20EE007ADFED897A9FED896A27EEB0
:103B8000267A67EEC77AE0EE257AF0EE676AE0EE15
:103B9000066A16EE903A6FF30B0306EE903AB0EE1B
:103BA000667AA0EE467A77EEC77A6FF30B0507EEDA
:103BB000105A9DED016ADDED015A36EE476A67EE57
:103BC000A57A26EE877AE6EE267A09F1FF3959EAD8
:103BD0000209BFEE008A77EE876AB7EE006A16EE3A
:103BE000903A18BFB0EE468A002B23F0004240F313
:103BF000B981B2F1864F00F2388200F01C82B2F136
:103C00007C5F00F20082002210466FF30B0305EE8A
:103C1000903A75EEC76A9FED637A9FED633A9FED28
:103C2000632ADFED633A9FED634ADFED634A9FED60
:103C3000635A77EEE67A25EE877ADFED616AA7EEC2
:103C4000A67AF0EE002AF0EE476AE5EE836AB7EE58
:103C5000000A26EEA66AF0EE667AE6EE023AE5EE95
:103C6000C37AF0EE445AE3EE865A77EE677AB0EE06
:103C7000647AA5EE867AF0EE455AE7EE065AB0EE83
:103C8000667AA5EEC67AE6EEA77A66EE875A37EE32
:103C9000626A85EE867A77EE677A77EEE67A30EEBC
:103CA000670A10EE103A1344B3F5000FC0F2958185
:103CB00000EE103A20EE080AE4E6B7F17E5F3FF42A
:103CC000F7AE32D99FED3F0ADDED017A002DB8BF86
:103CD000F0EE407AB0EE670AD4E6B6F1FF4FECD0D2
:103CE0004FF002099DED000AFFF788FBB7F1FF4F87
:103CF00002D0002F7FF417AF002DBCBFF7EE007A83
:103D000087EE800A002CBFF6BDAEA7F17E5757EABA
:103D1000090740F0208170EE407A87EEA70AB1E6ED
:103D2000002D1ADB9DED000AACE6002D21DB9FED96
:103D3000250AA7E6F315C3F1960346FA03F202FA41
:103D400003F3B34200F0FA80B6F17E5FE8D0B5F13C
:103D5000804F09D04FF00009C4E79DED007AF7EEDF
:103D6000007A87EE870A8DE6DDED007A27EEA70A56
:103D700088E6DDED017AB1EE670A83E6DDED007AD3
:103D800077EEE77A87EEA70A7CE600BFF3FF7F3F76
:103D90000700803FABAAAA3E70A5EC363BAAB83F0D
:103DA00000AAB83F8CBEBF350072313F4CBB3133E7
:103DB0000EEADDB555B38A38610B36BBABAA2A3E95
:103DC0001872313F000000000000804B14F0FF4FDC
:103DD00040F0F7805FED047A60EE277A6FF017030A
:103DE00017EE908AA9484FEAE851C8F316087F39C0
:103DF0008045194448F07E5340F3DB80A448804559
:103E000040F3F8809FEDA35A0131F0EE453AA3F557
:103E10000003F7EE005A002006EE103A76EE257AFF
:103E2000B7EE007A87EE270A5B1043F0005303F5E4
:103E30008023034476EE656A07EE901A26EE803AF8
:103E4000B8EEE77A13EE101A07EE903A924BDFEDD8
:103E5000930A9FED938A9FED931ADFED932ADFED8E
:103E6000931A9FED932A77EEE55A194004EE901AC3
:103E700036EE656A63EE035AE4EEE76AF0EE607AC6
:103E8000E5EE887AE4EEC66AA7EEA51A66EE806AC9
:103E9000E1EE252A73EE247AE2EEA51A25EEA58A34
:103EA000A1EEA52A67EEA67AB0EE084AB0EE446A03
:103EB000E8EE027AA4EEA46ADFED7E0A9FED7E1A98
:103EC000DFED7E2A36EE276A16EE101A194006EE4E
:103ED000101A76EE445AE4EEE45A77EEE57A67EE8D
:103EE000837AE6EE867AF0EE675AE4EE865A15EEAD
:103EF000901A194005EE901AF0EE656AE4EEC66A73
:103F000077EEE67A67EEA07AE5EE817A77EEA37A2D
:103F1000F0EE676AE5EEA26A76EE856A76EE876A6B
:103F200016EE901A194006EE901A36EEC77A37EE62
:103F3000457AA5EEE27A77EEC77A36E6B6F17E5F8D
:103F40003FF4EEAEB5F1804F3FF40EAF02F0010248
:103F5000C2F10209C6E6B9F1010F7FF493ADB1EEEB
:103F6000400A8FE556498A4200F287807FF447AEC7
:103F700076EEC76AF4EEE76AF1EE10FA7DDA03F541
:103F80000043504AC3F3C7517F39C3F316000A41B7
:103F900040F40000C1F117011A400841404206EE0A
:103FA000902A37EE667AC20577EE876A16EE903A67
:103FB0002BE69FED385AF7EE005AF0EE453A002016
:103FC0002AE700230EE7002D0CDB002003B0BDEC38
:103FD000028BBDE8F04300F0F9B900F07BF869E628
:103FE000002DF2DD002003B0BDEC028BBDE8F043F4
:103FF00000F0F2B99FED345ADFED343AF7EE085A8B
:104000004FF4001008E7D2157E3A4FF40001114139
:1040100019442C4AC1F3C7547F3CC1F31600224116
:1040200040F40000C4F11704002B40FA04F002EA47
:104030000102B4DAB2E79FED266A76EEC76A37EE80
:10404000866AB4EEE66AF1EE10FA0EDC03F5004380
:104050001C4AD9157F39C3F316000A4140F4000009
:10406000C1F117011A40084199E7B5EEC08AF1EE97
:1040700010FA4CBF01200020B5E7B5EEC08AF1EE82
:1040800010FA4CBF01200020A0E700BF71C41C0043
:10409000D6B35D000000000000F0FFFF55326C3E1B
:1040A00042F1533E05A38B3EABAAAA3EB76DDB3E61
:1040B0009A99193F4F38763FA0C39D360038763F16
:1040C00000001643000080FF00C0153FDCCFD13553
:1040D0003CAA383310EE103A33F000411A4627D08C
:1040E000B1F1FF4F21D213F0FF4F22D1DFED2B7A38
:1040F0002B4A60EE277A904217EE903A33DB4CF26F
:10410000503CC3F3C75160451A46A1F1190116DDB1
:10411000DFED247ADFED246A002BB0EE677AB8BFBA
:10412000F0EE667A27EE870A704730EE000A704795
:1041300070474CF2503C60454FEAD151E8DC0144F5
:10414000FE29E5DC002915DC11F1160F19DB193108
:1041500022F0FF4242EAC15207EE902A9FED130A75
:1041600027EE800A7047DFED127A07EE103A27EE4D
:10417000270A704722F0FF4242EAC15300EE103A8C
:104180007047DFED0B7ADFED0B6A002BB0EE677A3C
:10419000B8BFF0EE667A27EE870A70470000004C41
:1041A000B03CFFFFCAF24971CAF249F10000003386
:1041B0006042A20D6042A28D10EE103A23F0004240
:1041C000B2F1FF4F53D84FEAD37100F092806148AB
:1041D000834200F38480002BC0F284805E4B9A42BD
:1041E00048D95E4B9A4200F297805D4A02EB810209
:1041F000D2ED004AD2ED027A81F0010370EE644AFA
:104200005B1A34EEE70ADFED576A9FED575ADFED90
:10421000575A9FED576A20EE007AA7EE265ADFED37
:10422000556AE5EE075AE5EE876AA6EE876AF0EE74
:10423000406AE6EE476A20EE266A002B42D0B0EED6
:10424000007A37EE667AB7EE000AC6EE076A13F117
:104250007D0F77EEE67A77EEE47A30EE670A4FDB91
:1042600010EE102A02EBC35300EE103A704730EE06
:10427000000A7047B2F1505F0AD2DFED3F7A70EE6C
:10428000277AB7EE007AF4EEC77AF1EE10FA5DDC29
:1042900060EE007A9FED337ADFED335A9FED336A9B
:1042A000DFED346AE7EE875A9FED317AA7EEA56A13
:1042B000E7EE866AA7EEA67AF0EE406AE7EEC76AF6
:1042C00020EE266AF0EE007A76EEE76AB7EE007A24
:1042D000C6EE267A77EEC07A37EE670A704700207E
:1042E00000F07AB8254B9A427FF678AF002000F0B4
:1042F0006DB8DFED237A002918BFB0EE670A70476A
:1043000010EE102A643302EBC353DFED1E7A00EE89
:10431000103A20EE270A7047114B9FED1B7ADFED14
:104320001B6A03EB8103D3ED047AE0EE077A9FED7D
:10433000187AFDEEE77AF0EE404A17EE903AF8EE82
:10434000E77AE7EEE64A67EE877A5AE730EE070A41
:10435000704700BF1772B1421872B13E9115853F88
:10436000A8CA01084CBB31330EEADDB555B38A3813
:10437000ABAA2A3E610B36BBCAF24971B5F1CF42F6
:10438000000000000000800D3BAAB83F8071313F63
:10439000D1F7173710B52DED028BB0EE408A0446E9
:1043A000FCF760F9B0EE480ABDEC028B046010BD6A
:1043B00028B1F1EE407A27EE800A2220EAE7F0EEFB
:1043C000407A27EE800A2220E4E700BF9FED010A31
:1043D000EEE700BF000000109FED010AE8E700BF14
:1043E0000000007000289FED060AF7EE007ABFEE8D
:1043F000007A18BFF0EE477A87EE800A2220C9E7DC
:1044000000000000F0EE407A30EE407AF4EE677A79
:10441000F1EE10FA87EE070A01D62120BAE77047BD
:1044200008B510EE103A33F000422DED028B2CD07F
:10443000002B1A4632DBB3F1FF4F41DAB3F5000F20
:1044400035DB0021D3157F3B0B44D90FC1F17F0130
:1044500003EBD373C2F3160207EE903A42EAC1525D
:1044600000EE102AB8EEE78A00F086F8DFED177A42
:104470009FED177A20EE270ADFED167AA8EE070ADD
:10448000A8EE270ABDEC028B08BDBDEC028B9FEDA8
:10449000127ADFED127A87EE270A08BDBDEC028B97
:1044A00070EE407A9FED0D7A87EE870A08BDDFED4A
:1044B0000C7A60EE277A6FF0180117EE902AC1E7A8
:1044C000BDEC028B30EE000A08BD00BFD95BDE3EBA
:1044D000DB27543580209A3E000000CC000000000D
:1044E0000000004C10EE102AC2F3C7537F3B162B7E
:1044F00022F0004129DC002B104618DB1A49194133
:104500000A4221D0DFED197A70EE277AF5EEC07AF3
:10451000F1EE10FA18DD002A04DA4FF4000242FA34
:1045200003F3184420EA010300EE103A7047DFED70
:104530000F7A70EE277AF5EEC07AF1EE10FA03DD0D
:10454000002A08DB9FED0A0A7047B1F1FF4FFBD349
:1045500030EE000A7047DFED077A0029BFEE000A4F
:1045600008BFB0EE670A7047FFFF7F00CAF24971CB
:10457000000000000000008010EE102A32F000431E
:104580002FD0002A134633DBB2F1FF4F40DAB2F5E9
:10459000000F34DB4FF0000C6448C3F316010844ED
:1045A00000F4000282F07E520A43DB1500EE102A6E
:1045B0007F3B5F4A634401F10F0CF7EE007A0CEA8F
:1045C000020230EE670A03EBD05322BBB5EE400A7D
:1045D000F1EE10FA62D1002B40F090809FED550A69
:1045E00070479FED557ADFED537A87EE270A7047C3
:1045F00070EE407A9FED4F7A87EE870A7047DFEDC5
:104600004F7A60EE277A6FF0180C17EE903AC3E7F6
:1046100030EE000A7047F0EE007A70EE277A07EE6F
:10462000103A80EE274A4648C1F55712084402F571
:1046300022720243002A9FED433ADFED434ADFED49
:10464000435ADFED433A9FED435ADFED437ADFED06
:10465000436A24EE046AF8EEC72A26EE067AE7EEED
:10466000034AA7EE235AE4EE875AE5EE076AE5EE21
:10467000877A67EE867AE6EE877A2ADDB6EE007AEA
:1046800020EE077A27EE007A77EE877A67EE847A53
:104690003BBB37EE677A30EE470A70479FED307AC2
:1046A000F6EE007AE0EE477A20EE007A27EE277ADF
:1046B000002BF0D007EE903A9FED2A6ADFED2A6AD0
:1046C000F8EEE77AA7EEC67A37EE400A97EEA60A2A
:1046D000704770EE677A67EE847AE3B930EE670A66
:1046E00070479FED206ADFED206AE2EE867A37EEB2
:1046F000677A37EE400A92EEA60A704707EE903AC4
:104700009FED180A9FED187AF8EEE77A27EE800AF7
:10471000A7EE870A7047DFED136A9FED137AE2EE8A
:10472000E67A37EEC00A92EE870A704720FB4A000D
:10473000F0FF7F0000000000000000CC0000004CF3
:10474000305CCFFF9788173E25333A3E2549923E8D
:104750004FD01C3E298E633EABAA2A3FCDCCCC3E27
:10476000ABAAAA3ED1F717378071313F81F00041E3
:1047700002E000BF83F0004330B54FEA41044FEA46
:10478000430594EA050F08BF90EA020F1FBF54EAE1
:10479000000C55EA020C7FEA645C7FEA655C00F07D
:1047A000E2804FEA5454D4EB5555B8BF6D420CDD4E
:1047B0002C4480EA020281EA030382EA000083EAD1
:1047C000010180EA020281EA0303362D88BF30BD71
:1047D00011F0004F4FEA01314FF4801C4CEA1131C7
:1047E00002D0404261EB410113F0004F4FEA033326
:1047F0004CEA133302D0524263EB430394EA050FB1
:1048000000F0A780A4F10104D5F1200E0DDB02FA1F
:104810000EFC22FA05F2801841F1000103FA0EF2B3
:10482000801843FA05F359410EE0A5F120050EF179
:10483000200E012A03FA0EFC28BF4CF0020C43FAAA
:1048400005F3C01851EBE37101F0004507D54FF0B7
:10485000000EDCF1000C7EEB00006EEB0101B1F507
:10486000801F1BD3B1F5001F0CD349085FEA30004D
:104870004FEA3C0C04F101044FEA445212F5800F58
:1048800080F09A80BCF1004F08BF5FEA500C50F1F5
:10489000000041EB045141EA050130BD5FEA4C0CD8
:1048A000404141EB0101013C28BFB1F5801FE9D235
:1048B00091F0000F04BF01460020B1FA81F308BF58
:1048C0002033A3F10B03B3F120020CDA0C3208DD24
:1048D00002F1140CC2F10C0201FA0CF021FA02F1FF
:1048E0000CE002F11402D8BFC2F1200C01FA02F16F
:1048F00020FA0CFCDCBF41EA0C019040E41AA2BF94
:1049000001EB0451294330BD6FEA04041F3C1CDA5B
:104910000C340EDC04F11404C4F1200220FA04F07B
:1049200001FA02F340EA030021FA04F345EA030125
:1049300030BDC4F10C04C4F1200220FA02F001FAE7
:1049400004F340EA0300294630BD21FA04F0294669
:1049500030BD94F0000F83F4801306BF81F4801102
:104960000134013D4EE77FEA645C18BF7FEA655C75
:1049700029D094EA050F08BF90EA020F05D054EA47
:10498000000C04BF1946104630BD91EA030F1EBF4C
:104990000021002030BD5FEA545C05D14000494150
:1049A00028BF41F0004130BD14F580043CBF01F543
:1049B000801130BD01F0004545F0FE4141F4700129
:1049C0004FF0000030BD7FEA645C1ABF1946104604
:1049D0007FEA655C1CBF0B46024650EA013406BF05
:1049E00052EA033591EA030F41F4002130BD00BFC4
:1049F00090F0000F04BF0021704730B54FF4806481
:104A000004F132044FF000054FF0000150E700BF01
:104A100090F0000F04BF0021704730B54FF4806460
:104A200004F1320410F0004548BF40424FF000014D
:104A30003EE700BF42004FEAE2014FEA31014FEA90
:104A400002701FBF12F07F4393F07F4F81F06051DF
:104A5000704732F07F4208BF704793F07F4F04BF2A
:104A600041F40021704730B54FF4607401F0004507
:104A700021F000411CE700BF50EA010208BF704767
:104A800030B54FF000050AE050EA010208BF704758
:104A900030B511F0004502D5404261EB41014FF4C1
:104AA000806404F132045FEA915C3FF4D8AE4FF0C9
:104AB00003025FEADC0C18BF03325FEADC0C18BFAC
:104AC000033202EBDC02C2F1200300FA03FC20FAFD
:104AD00002F001FA03FE40EA0E0021FA02F114444A
:104AE000BDE600BF70B54FF0FF0C4CF4E06C1CEA63
:104AF00011541DBF1CEA135594EA0C0F95EA0C0FD4
:104B000000F0DEF82C4481EA030621EA4C5123EA46
:104B10004C5350EA013518BF52EA033541F4801175
:104B200043F4801338D0A0FB02CE4FF00005E1FB28
:104B300002E506F00042E0FB03E54FF00006E1FB72
:104B400003569CF0000F18BF4EF0010EA4F1FF04B5
:104B5000B6F5007F64F5407404D25FEA4E0E6D41F5
:104B600046EB060642EAC62141EA55514FEAC52006
:104B700040EA5E504FEACE2EB4F1FD0C88BFBCF582
:104B8000E06F1ED8BEF1004F08BF5FEA500E50F133
:104B9000000041EB045170BD06F0004646EA0101F9
:104BA00040EA020081EA0301B4EB5C04C2BFD4EB2B
:104BB0000C0541EA045170BD41F480114FF0000E24
:104BC000013C00F3AB8014F1360FDEBF002001F092
:104BD000004170BDC4F10004203C35DA0C341BDC0C
:104BE00004F11404C4F1200500FA05F320FA04F0DE
:104BF00001FA05F240EA020001F0004221F0004112
:104C000010EBD37021FA04F642EB06015EEA430E84
:104C100008BF20EAD37070BDC4F10C04C4F12005B4
:104C200000FA04F320FA05F001FA04F240EA020067
:104C300001F0004110EBD37041F100015EEA430E38
:104C400008BF20EAD37070BDC4F1200500FA05F258
:104C50004EEA020E20FA04F301FA05F243EA0203D7
:104C600021FA04F001F0004121FA04F220EA0200E6
:104C700000EBD3705EEA430E08BF20EAD37070BD2C
:104C800094F0000F0FD101F00046400041EB01010C
:104C900011F4801F08BF013CF7D041EA060195F0EE
:104CA000000F18BF704703F00046520043EB0303A8
:104CB00013F4801F08BF013DF7D043EA0603704795
:104CC00094EA0C0F0CEA135518BF95EA0C0F0CD0A0
:104CD00050EA410618BF52EA4306D1D181EA0301E6
:104CE00001F000414FF0000070BD50EA410606BFE0
:104CF0001046194652EA430619D094EA0C0F02D125
:104D000050EA013613D195EA0C0F05D152EA033669
:104D10001CBF104619460AD181EA030101F0004187
:104D200041F0FE4141F470014FF0000070BD41F0D0
:104D3000FE4141F4780170BD70B54FF0FF0C4CF4AA
:104D4000E06C1CEA11541DBF1CEA135594EA0C0FC9
:104D500095EA0C0F00F0A7F8A4EB050481EA030E16
:104D600052EA03354FEA013100F088804FEA0333FD
:104D70004FF0805545EA131343EA12634FEA0222CB
:104D800045EA111545EA10654FEA00260EF000418C
:104D90009D4208BF964244F1FD0404F5407402D2DE
:104DA0005B084FEA3202B61A65EB03055B084FEA6F
:104DB00032024FF480104FF4002CB6EB020E75EB6C
:104DC000030E22BFB61A754640EA0C005B084FEA94
:104DD0003202B6EB020E75EB030E22BFB61A754611
:104DE00040EA5C005B084FEA3202B6EB020E75EB5C
:104DF000030E22BFB61A754640EA9C005B084FEAD4
:104E00003202B6EB020E75EB030E22BFB61A7546E0
:104E100040EADC0055EA060E18D04FEA051545EACF
:104E200016754FEA06164FEAC30343EA52734FEA78
:104E3000C2025FEA1C1CC0D111F4801F0BD141EAF1
:104E400000014FF000004FF0004CB6E711F4801F56
:104E500004BF01430020B4F1FD0C88BFBCF5E06F36
:104E60003FF6AFAEB5EB030C04BFB6EB020C5FEA46
:104E7000500C50F1000041EB045170BD0EF0004E9B
:104E80004EEA113114EB5C04C2BFD4EB0C0541EACD
:104E9000045170BD41F480114FF0000E013C90E6CA
:104EA00045EA060E8DE60CEA135594EA0C0F08BF8E
:104EB00095EA0C0F3FF43BAF94EA0C0F0AD150EA8D
:104EC00001347FF434AF95EA0C0F7FF425AF104620
:104ED00019462CE795EA0C0F06D152EA03353FF448
:104EE000FDAE1046194622E750EA410618BF52EAC5
:104EF00043067FF4C5AE50EA41047FF40DAF52EA99
:104F000043057FF4EBAE12E74FF0FF3C06E000BF35
:104F10004FF0010C02E000BF4FF0010C4DF804CD42
:104F20004FEA410C7FEA6C5C4FEA430C18BF7FEA02
:104F30006C5C1BD001B050EA410C0CBF52EA430C30
:104F400091EA030F02BF90EA020F0020704710F1B0
:104F5000000F91EA030F58BF994208BF90422CBF3F
:104F6000D8176FEAE37040F0010070474FEA410C38
:104F70007FEA6C5C02D150EA013C07D14FEA430C56
:104F80007FEA6C5CD6D152EA033CD3D05DF8040BC7
:104F9000704700BF8446104662468C4619466346F9
:104FA00000E000BF01B5FFF7B7FF002848BF10F1D0
:104FB000000F01BD4DF808EDFFF7F4FF0CBF012015
:104FC00000205DF808FB00BF4DF808EDFFF7EAFF91
:104FD00034BF012000205DF808FB00BF4DF808ED4C
:104FE000FFF7E0FF94BF012000205DF808FB00BF41
:104FF0004DF808EDFFF7CEFF94BF012000205DF8CB
:1050000008FB00BF4DF808EDFFF7C4FF34BF0120D7
:1050100000205DF808FB00BF4FEA410212F50012C4
:1050200015D211D56FF47873B3EB625212D94FEAEF
:10503000C12343F0004343EA505311F0004F23FAD9
:1050400002F018BF404270474FF00000704750EA2E
:10505000013005D111F0004008BF6FF000407047EB
:105060004FF00000704700BF4FEA4102B2F1E04349
:1050700024BFB3F5001CDCF1FE5C0DD901F0004C3F
:105080004FEAC0024CEA5070B2F1004F40EB83008F
:1050900008BF20F00100704711F0804F21D113F1BB
:1050A0003872BCBF01F00040704741F480114FEAF4
:1050B0005252C2F11802C2F1200C10FA0CF320FA7D
:1050C00002F018BF40F001004FEAC1234FEAD3239A
:1050D00003FA0CFC40EA0C0023FA02F34FEA430304
:1050E000CCE77FEA625307D150EA01331EBF4FF08D
:1050F000FE4040F44000704701F0004040F0FE40A8
:1051000040F40000704700BF53B94AB9002908BFF6
:1051100000281CBF4FF0FF314FF0FF3000F0E4BA21
:10512000ADF1080C6DE904CE00F080F9DDF804E083
:10513000DDE9022304B07047430803F05533C01A79
:10514000830803F0333300F03330184400EB1010C1
:1051500000F00F3000EB002000EB0040000E704725
:1051600060EE016A20EEA16A20EE215A76EEC67A40
:1051700061EE205AF4EE677AF1EE10FA35EE257AF8
:1051800004D6B0EE670AF0EE470A7047B4EE477AED
:10519000F1EE10FAF5D79FEDA14AF0EEC04AF4EE19
:1051A000444AF1EE10FAF0EEE03A00F3A080F4EE9B
:1051B000443AF1EE10FA00F39A800023DFED974AAB
:1051C000B0EEC14AB4EE644AF1EE10FAF0EEE13A04
:1051D00048DCF4EE643AF1EE10FA43DC9BBBF0EEEF
:1051E000E66AF4EE646AF1EE10FA14DCB0EEC66A18
:1051F000B4EE646AF1EE10FA0DDCB0EEC55AB4EE0E
:10520000645AF1EE10FA06DCF0EEE55AF4EE645A58
:10521000F1EE10FAB5DDB4EE400AF1EE10FA80F1CD
:10522000F080F4EE600AF1EE10FA80F1DD80B4EE69
:10523000411AF1EE10FA80F1CA80F4EE611AF1EE33
:1052400010FA80F1B78061EEE07A60EE810AE0EE5C
:10525000017AE0EE210A9FED727A67EE877A20EEFE
:10526000877A8EE7DFED6D7A9FED6C7AB4EE674A50
:10527000F1EE10FACCBF0123002307EE903A11EEB5
:10528000103AF8EEE77A002BF0EEE77AF4EE473AC0
:10529000B8BFF1EE677AF1EE10FACCBF012300231C
:1052A000B0EE671A07EE903A11EE903AF8EEE77A10
:1052B000002BF0EEE77AB4EE400AB8BFF1EE677A61
:1052C000F1EE10FAF0EE671A5AD6F4EE600AF1EE3B
:1052D00010FAB8D710EE903A9FED527ADFED527A7D
:1052E000002BB4BFF0EE670AF0EE470AABE79FED84
:1052F0004B4AF4EE444AF1EE10FACCBF01230023EE
:1053000004EE903A9FED454A10EE103AF8EEE44A6A
:10531000002BF0EEE44AF4EE443AB8BFF1EE644AF2
:10532000F1EE10FACCBF01230023B0EE640A04EEC4
:10533000903A10EE903AF8EEE44A002BF0EEE44A90
:10534000B4EE411AB8BFF1EE644AF1EE10FAF0EE95
:10535000640A22D6F4EE611AF1EE10FA78BF012346
:10536000FFF52CAF11EE903A9FED2E4ADFED2E4A5D
:10537000002BB4BFF0EE641AF0EE441A01231DE7CF
:1053800010EE103A9FED277ADFED277A002BB4BF9D
:10539000B0EE670AB0EE470A97E711EE103A9FEDBC
:1053A000214ADFED214A002BB4BFB0EE641AB0EE03
:1053B000441ACFE711EE903A9FED1A7ADFED1A7A90
:1053C000002BB4BFF0EE671AF0EE471A3BE711EE80
:1053D000103A9FED147ADFED147A002BB4BFB0EED3
:1053E000671AB0EE471A28E710EE903A9FED0D7A53
:1053F000DFED0D7A002BB4BFF0EE670AF0EE470A3E
:1054000015E710EE103A9FED077ADFED077A002BD3
:10541000B4BFB0EE670AB0EE470A02E7FFFF7F7F36
:105420000000807F00000000000000802DE9F047B0
:10543000089D0E4604460F46002B4AD194468C45E3
:10544000B2FA82F260D942B1C2F12003974020FA49
:1054500003F30CFA02FC1F4394404FEA1C4E1FFA60
:105460008CF6B7FBFEF1230C0EFB117743EA0743E2
:1054700001FB06F098420AD91CEB030301F1FF3748
:1054800080F01581984240F21281023963441B1A60
:10549000A4B2B3FBFEF00EFB103344EA034400FB5E
:1054A00006F6A6420AD91CEB040400F1FF3380F093
:1054B0000081A64240F2FD806444023840EA014087
:1054C000A41B00211DB1D4400023C5E90043BDE861
:1054D000F0878B4205D90DB1C5E9000100210846CE
:1054E000F5E7B3FA83F1002946D1B34202D38242F1
:1054F00000F2F580841A66EB030201201746002DA6
:10550000E5D0C5E90047E2E7002A40F09380A1EB2F
:105510000C034FEA1C471FFA8CFE0121B3FBF7F680
:1055200007FB1630230C43EA00430EFB06F09842BB
:1055300008D91CEB030306F1FF3802D2984200F2AF
:10554000D08046461B1AA4B2B3FBF7F007FB10331A
:1055500044EA03440EFB00FEA64508D91CEB0404F4
:1055600000F1FF3302D2A64500F2B6801846A4EB44
:105570000E0440EA0640A5E7C1F120078B4022FA5D
:1055800007FC4CEA030C06FA01FE20FA07F426FA9F
:1055900007F344EA0E0400FA01F84FEA1C404FEA10
:1055A0001449B3FBF0FE1FFA8CF600FB1E3349EAE8
:1055B00003430EFB06F9994502FA01F20BD91CEBE5
:1055C00003030EF1FF3A80F08580994540F2828016
:1055D000AEF1020E6344A3EB0909A4B2B9FBF0F3E8
:1055E00000FB139944EA094403FB06F6A64208D9D6
:1055F0001CEB040403F1FF3068D2A64266D9023BDB
:10560000644443EA0E40A41BA0FB02E6B442734686
:10561000B14652D34FD05DB1B8EB030264EB09043D
:1056200004FA07F722FA01F31F43CC40C5E90074DE
:1056300000214CE7C2F1200120FA01F30CFA02FC30
:1056400026FA01F1964033434FEA1C471FFA8CFEBD
:10565000B1FBF7F007FB1016190C41EA064100FBFD
:105660000EF68E4204FA02F408D91CEB010100F197
:10567000FF382DD28E422BD902386144891B9BB250
:10568000B1FBF7F607FB161143EA014306FB0EF1E7
:10569000994208D91CEB030306F1FF3814D2994252
:1056A00012D9023E63445B1A46EA004136E73946A6
:1056B000EDE6184602E7F045ADD2BEEB020366EB1D
:1056C0000C060138B146A6E74646ECE7034698E7E4
:1056D0004046D3E7D6467EE76444023847E70846AB
:1056E0000DE7023E63442DE7704700BFBFF34F8FC5
:1056F000BFF36F8F084B0022C3F85022BFF34F8FC8
:10570000BFF36F8F5A6942F400325A61BFF34F8F73
:10571000BFF36F8F704700BF00ED00E0084AD2F87A
:10572000FC3043F08073C2F8FC30064B064AC3F8E5
:10573000B02F00225A601A6842F001021A607047C6
:1057400000ED00E0001000E055CEACC5034B9B6BB4
:105750001B685868C0F51650704700BF34450220DA
:1057600008B5FFF7F3FF054B1B68834201D8C01A49
:1057700008BDC01A00F51650FAE700BFFC4B002028
:1057800005280AD800EB4003064A52F8233033B10B
:1057900000EB400002EB800070470348704702486E
:1057A000704700BF3CE0010848E00108F8B52DED66
:1057B000028B06460F46324B93ED018A314BD3EDF7
:1057C000007AB4EE678AF1EE10FA0FD083ED008A0A
:1057D000B0EE480AFCF77AFE2B4B83ED000AB0EEE0
:1057E000480AFDF7A9FA294B83ED000A002225E0BB
:1057F000D30006EBC201264DD5ED007AC1ED007A4B
:1058000004333344234C94ED007A83ED007A1E4B2D
:1058100093ED006A67EE866A1C4BD3ED005A27EEC3
:10582000255A76EEC56A67EEA57A27EE067A77EEF8
:10583000877AC5ED006AC4ED007A0132BA42D7DB3F
:10584000134A92ED007A67EE076A124BD3ED007AA5
:1058500027EEA76A76EE866AB6EE006A66EE866A7C
:10586000B7EE086A76EE666A27EE267A82ED007A4F
:1058700067EEA67AC3ED007ABDEC028BF8BD00BFDF
:1058800074B60120A00E0020600000209C0E0020B5
:105890005C000020980E002010B584B00024009415
:1058A00001940294039403F045F801238DF800302D
:1058B0008DF8014001941F228DF8082087228DF871
:1058C00009208DF80A408DF80B408DF80C308DF8CA
:1058D0000D308DF80E408DF80F40684603F048F803
:1058E000042003F035F804B010BD0000F0B58DB011
:1058F00000240794089409940A940B94364B1A6B6D
:1059000042F004021A631A6B02F004020192019A37
:105910001A6B42F080021A631A6B02F08002029244
:10592000029A1A6B42F001021A631A6B02F001022A
:105930000392039A1A6B42F002021A631A6B02F086
:1059400002020492049A1A6B42F008021A631A6B5C
:1059500002F008020592059A1A6B42F040021A639F
:105960001B6B03F040030693069B1C4F224644F238
:105970008101384602F010FD194D2246402128468B
:1059800002F00AFD4FF4005307934FF48813089375
:10599000099407A9134802F0FDFB44F28103079321
:1059A0000126089609940A9407A9384602F0F2FBEA
:1059B00040230793089609940A9407A9284602F001
:1059C000E9FB802307930894099407A9284602F06D
:1059D000E1FB0DB0F0BD00BF003802400004024002
:1059E000001802400008024000B583B0124B1A6B49
:1059F00042F400121A631A6B02F400120092009A29
:105A00001A6B42F480021A631B6B03F48003019348
:105A1000019B00221146102002F05AFF102002F0D4
:105A200067FF00221146382002F052FF382002F0B2
:105A30005FFF03B05DF804FB0038024070B54FF41F
:105A400080260025B5420CD2AC19013464082046EA
:105A5000FBF72EF818B1FBF733F82546F2E7661E80
:105A6000F0E7284670BD000010B50446FAF728FD9F
:105A7000642382B22146024803F0B6FF10BD00BF86
:105A80008842022000B591B004AB02E0013003F877
:105A9000012B0278002AF9D19C463D220CF8012BFB
:105AA000002916DB00221A4880FB0130CB17C3EB1C
:105AB000A003184603EB8303A1EB430311463033E5
:105AC00040316944013201F83C3C01460028EAD1EA
:105AD0000FE003F1020C2D225A704942E2E7013A2D
:105AE000634602F14001694411F83C1C03F8011BB4
:105AF0009C46002AF3D120238CF8003000238CF838
:105B0000013004A8FFF7B0FF11B05DF804FB00BF3F
